{
  "contractName": "Basic777",
  "abi": [
    {
      "constant": false,
      "inputs": [],
      "name": "unpause",
      "outputs": [],
      "payable": false,
      "stateMutability": "nonpayable",
      "type": "function"
    },
    {
      "constant": true,
      "inputs": [],
      "name": "paused",
      "outputs": [
        {
          "name": "",
          "type": "bool"
        }
      ],
      "payable": false,
      "stateMutability": "view",
      "type": "function"
    },
    {
      "constant": false,
      "inputs": [],
      "name": "pause",
      "outputs": [],
      "payable": false,
      "stateMutability": "nonpayable",
      "type": "function"
    },
    {
      "constant": true,
      "inputs": [],
      "name": "owner",
      "outputs": [
        {
          "name": "",
          "type": "address"
        }
      ],
      "payable": false,
      "stateMutability": "view",
      "type": "function"
    },
    {
      "constant": false,
      "inputs": [
        {
          "name": "newOwner",
          "type": "address"
        }
      ],
      "name": "transferOwnership",
      "outputs": [],
      "payable": false,
      "stateMutability": "nonpayable",
      "type": "function"
    },
    {
      "inputs": [],
      "payable": false,
      "stateMutability": "nonpayable",
      "type": "constructor"
    },
    {
      "anonymous": false,
      "inputs": [
        {
          "indexed": true,
          "name": "operator",
          "type": "address"
        },
        {
          "indexed": true,
          "name": "from",
          "type": "address"
        },
        {
          "indexed": true,
          "name": "to",
          "type": "address"
        },
        {
          "indexed": false,
          "name": "amount",
          "type": "uint256"
        },
        {
          "indexed": false,
          "name": "userData",
          "type": "bytes"
        },
        {
          "indexed": false,
          "name": "operatorData",
          "type": "bytes"
        }
      ],
      "name": "Sent",
      "type": "event"
    },
    {
      "anonymous": false,
      "inputs": [
        {
          "indexed": true,
          "name": "operator",
          "type": "address"
        },
        {
          "indexed": true,
          "name": "to",
          "type": "address"
        },
        {
          "indexed": false,
          "name": "amount",
          "type": "uint256"
        },
        {
          "indexed": false,
          "name": "operatorData",
          "type": "bytes"
        }
      ],
      "name": "Minted",
      "type": "event"
    },
    {
      "anonymous": false,
      "inputs": [
        {
          "indexed": true,
          "name": "operator",
          "type": "address"
        },
        {
          "indexed": true,
          "name": "from",
          "type": "address"
        },
        {
          "indexed": false,
          "name": "amount",
          "type": "uint256"
        },
        {
          "indexed": false,
          "name": "userData",
          "type": "bytes"
        },
        {
          "indexed": false,
          "name": "operatorData",
          "type": "bytes"
        }
      ],
      "name": "Burned",
      "type": "event"
    },
    {
      "anonymous": false,
      "inputs": [
        {
          "indexed": true,
          "name": "operator",
          "type": "address"
        },
        {
          "indexed": true,
          "name": "tokenHolder",
          "type": "address"
        }
      ],
      "name": "AuthorizedOperator",
      "type": "event"
    },
    {
      "anonymous": false,
      "inputs": [
        {
          "indexed": true,
          "name": "operator",
          "type": "address"
        },
        {
          "indexed": true,
          "name": "tokenHolder",
          "type": "address"
        }
      ],
      "name": "RevokedOperator",
      "type": "event"
    },
    {
      "anonymous": false,
      "inputs": [
        {
          "indexed": true,
          "name": "from",
          "type": "address"
        },
        {
          "indexed": true,
          "name": "to",
          "type": "address"
        },
        {
          "indexed": false,
          "name": "amount",
          "type": "uint256"
        }
      ],
      "name": "Transfer",
      "type": "event"
    },
    {
      "anonymous": false,
      "inputs": [
        {
          "indexed": true,
          "name": "owner",
          "type": "address"
        },
        {
          "indexed": true,
          "name": "spender",
          "type": "address"
        },
        {
          "indexed": false,
          "name": "amount",
          "type": "uint256"
        }
      ],
      "name": "Approval",
      "type": "event"
    },
    {
      "anonymous": false,
      "inputs": [],
      "name": "Pause",
      "type": "event"
    },
    {
      "anonymous": false,
      "inputs": [],
      "name": "Unpause",
      "type": "event"
    },
    {
      "anonymous": false,
      "inputs": [
        {
          "indexed": false,
          "name": "previousOwner",
          "type": "address"
        },
        {
          "indexed": false,
          "name": "newOwner",
          "type": "address"
        }
      ],
      "name": "OwnershipTransferred",
      "type": "event"
    },
    {
      "anonymous": false,
      "inputs": [
        {
          "indexed": false,
          "name": "newOwner",
          "type": "address"
        }
      ],
      "name": "OwnerSet",
      "type": "event"
    },
    {
      "constant": false,
      "inputs": [
        {
          "name": "_name",
          "type": "string"
        },
        {
          "name": "_symbol",
          "type": "string"
        },
        {
          "name": "_granularity",
          "type": "uint256"
        },
        {
          "name": "_eip820RegistryAddr",
          "type": "address"
        },
        {
          "name": "_owner",
          "type": "address"
        }
      ],
      "name": "initialize",
      "outputs": [],
      "payable": false,
      "stateMutability": "nonpayable",
      "type": "function"
    },
    {
      "constant": true,
      "inputs": [],
      "name": "initialized",
      "outputs": [
        {
          "name": "",
          "type": "bool"
        }
      ],
      "payable": false,
      "stateMutability": "view",
      "type": "function"
    },
    {
      "constant": true,
      "inputs": [],
      "name": "getIntrospectionRegistry",
      "outputs": [
        {
          "name": "",
          "type": "address"
        }
      ],
      "payable": false,
      "stateMutability": "view",
      "type": "function"
    },
    {
      "constant": true,
      "inputs": [],
      "name": "name",
      "outputs": [
        {
          "name": "",
          "type": "string"
        }
      ],
      "payable": false,
      "stateMutability": "view",
      "type": "function"
    },
    {
      "constant": true,
      "inputs": [],
      "name": "symbol",
      "outputs": [
        {
          "name": "",
          "type": "string"
        }
      ],
      "payable": false,
      "stateMutability": "view",
      "type": "function"
    },
    {
      "constant": true,
      "inputs": [],
      "name": "granularity",
      "outputs": [
        {
          "name": "",
          "type": "uint256"
        }
      ],
      "payable": false,
      "stateMutability": "view",
      "type": "function"
    },
    {
      "constant": true,
      "inputs": [],
      "name": "totalSupply",
      "outputs": [
        {
          "name": "",
          "type": "uint256"
        }
      ],
      "payable": false,
      "stateMutability": "view",
      "type": "function"
    },
    {
      "constant": true,
      "inputs": [
        {
          "name": "_tokenHolder",
          "type": "address"
        }
      ],
      "name": "balanceOf",
      "outputs": [
        {
          "name": "",
          "type": "uint256"
        }
      ],
      "payable": false,
      "stateMutability": "view",
      "type": "function"
    },
    {
      "constant": false,
      "inputs": [
        {
          "name": "_to",
          "type": "address"
        },
        {
          "name": "_amount",
          "type": "uint256"
        }
      ],
      "name": "send",
      "outputs": [],
      "payable": false,
      "stateMutability": "nonpayable",
      "type": "function"
    },
    {
      "constant": false,
      "inputs": [
        {
          "name": "_to",
          "type": "address"
        },
        {
          "name": "_amount",
          "type": "uint256"
        },
        {
          "name": "_userData",
          "type": "bytes"
        }
      ],
      "name": "send",
      "outputs": [],
      "payable": false,
      "stateMutability": "nonpayable",
      "type": "function"
    },
    {
      "constant": false,
      "inputs": [
        {
          "name": "_operator",
          "type": "address"
        }
      ],
      "name": "authorizeOperator",
      "outputs": [],
      "payable": false,
      "stateMutability": "nonpayable",
      "type": "function"
    },
    {
      "constant": false,
      "inputs": [
        {
          "name": "_operator",
          "type": "address"
        },
        {
          "name": "_amount",
          "type": "uint256"
        }
      ],
      "name": "authorizeOperatorAndCall",
      "outputs": [
        {
          "name": "success",
          "type": "bool"
        }
      ],
      "payable": false,
      "stateMutability": "nonpayable",
      "type": "function"
    },
    {
      "constant": false,
      "inputs": [
        {
          "name": "_operator",
          "type": "address"
        }
      ],
      "name": "revokeOperator",
      "outputs": [],
      "payable": false,
      "stateMutability": "nonpayable",
      "type": "function"
    },
    {
      "constant": true,
      "inputs": [
        {
          "name": "_operator",
          "type": "address"
        },
        {
          "name": "_tokenHolder",
          "type": "address"
        }
      ],
      "name": "isOperatorFor",
      "outputs": [
        {
          "name": "",
          "type": "bool"
        }
      ],
      "payable": false,
      "stateMutability": "view",
      "type": "function"
    },
    {
      "constant": false,
      "inputs": [
        {
          "name": "_from",
          "type": "address"
        },
        {
          "name": "_to",
          "type": "address"
        },
        {
          "name": "_amount",
          "type": "uint256"
        },
        {
          "name": "_userData",
          "type": "bytes"
        },
        {
          "name": "_operatorData",
          "type": "bytes"
        }
      ],
      "name": "operatorSend",
      "outputs": [],
      "payable": false,
      "stateMutability": "nonpayable",
      "type": "function"
    },
    {
      "constant": false,
      "inputs": [
        {
          "name": "_tokenHolder",
          "type": "address"
        },
        {
          "name": "_amount",
          "type": "uint256"
        },
        {
          "name": "_operatorData",
          "type": "bytes"
        }
      ],
      "name": "mint",
      "outputs": [],
      "payable": false,
      "stateMutability": "nonpayable",
      "type": "function"
    },
    {
      "constant": false,
      "inputs": [
        {
          "name": "_tokenHolder",
          "type": "address"
        },
        {
          "name": "_amount",
          "type": "uint256"
        },
        {
          "name": "_userData",
          "type": "bytes"
        },
        {
          "name": "_operatorData",
          "type": "bytes"
        }
      ],
      "name": "burn",
      "outputs": [],
      "payable": false,
      "stateMutability": "nonpayable",
      "type": "function"
    },
    {
      "constant": false,
      "inputs": [],
      "name": "disableERC20",
      "outputs": [],
      "payable": false,
      "stateMutability": "nonpayable",
      "type": "function"
    },
    {
      "constant": false,
      "inputs": [],
      "name": "enableERC20",
      "outputs": [],
      "payable": false,
      "stateMutability": "nonpayable",
      "type": "function"
    },
    {
      "constant": true,
      "inputs": [],
      "name": "decimals",
      "outputs": [
        {
          "name": "",
          "type": "uint8"
        }
      ],
      "payable": false,
      "stateMutability": "view",
      "type": "function"
    },
    {
      "constant": false,
      "inputs": [
        {
          "name": "_to",
          "type": "address"
        },
        {
          "name": "_amount",
          "type": "uint256"
        }
      ],
      "name": "transfer",
      "outputs": [
        {
          "name": "success",
          "type": "bool"
        }
      ],
      "payable": false,
      "stateMutability": "nonpayable",
      "type": "function"
    },
    {
      "constant": false,
      "inputs": [
        {
          "name": "_from",
          "type": "address"
        },
        {
          "name": "_to",
          "type": "address"
        },
        {
          "name": "_amount",
          "type": "uint256"
        }
      ],
      "name": "transferFrom",
      "outputs": [
        {
          "name": "success",
          "type": "bool"
        }
      ],
      "payable": false,
      "stateMutability": "nonpayable",
      "type": "function"
    },
    {
      "constant": false,
      "inputs": [
        {
          "name": "_spender",
          "type": "address"
        },
        {
          "name": "_amount",
          "type": "uint256"
        }
      ],
      "name": "approve",
      "outputs": [
        {
          "name": "success",
          "type": "bool"
        }
      ],
      "payable": false,
      "stateMutability": "nonpayable",
      "type": "function"
    },
    {
      "constant": true,
      "inputs": [
        {
          "name": "_owner",
          "type": "address"
        },
        {
          "name": "_spender",
          "type": "address"
        }
      ],
      "name": "allowance",
      "outputs": [
        {
          "name": "remaining",
          "type": "uint256"
        }
      ],
      "payable": false,
      "stateMutability": "view",
      "type": "function"
    }
  ],
  "bytecode": "0x608060405260008060146101000a81548160ff02191690831515021790555073991a1bcb077599290d7305493c9a630c20f8b798600160006101000a81548173ffffffffffffffffffffffffffffffffffffffff021916908373ffffffffffffffffffffffffffffffffffffffff1602179055503480156200008057600080fd5b506200009b33620000a1640100000000026401000000009004565b62000147565b806000806101000a81548173ffffffffffffffffffffffffffffffffffffffff021916908373ffffffffffffffffffffffffffffffffffffffff1602179055507f50146d0e3c60aa1d17a70635b05494f864e86144a2201275021014fbf08bafe281604051808273ffffffffffffffffffffffffffffffffffffffff1673ffffffffffffffffffffffffffffffffffffffff16815260200191505060405180910390a150565b61342280620001576000396000f300608060405260043610610175576000357c0100000000000000000000000000000000000000000000000000000000900463ffffffff16806306fdde031461017a578063070c87f91461020a578063095ea7b314610221578063158ef93e1461028657806318160ddd146102b5578063190a6aa9146102e057806323b872dd146103b9578063313ce5671461043e5780633f4ba83a1461046f5780635007e47e14610486578063556f0dc7146104dd5780635c975abb1461050857806362ad1b831461053757806370a08231146106305780637e77c503146106875780638456cb59146107805780638da5cb5b1461079757806394d008ef146107ee578063959b8c3f1461088157806395d89b41146108c45780639bd9bbc614610954578063a9059cbb146109e7578063d0679d3414610a4c578063d95b637114610a99578063dd62ed3e14610b14578063f2fde38b14610b8b578063f37d318914610bce578063f922f21614610c33578063fad8b32a14610c4a575b600080fd5b34801561018657600080fd5b5061018f610c8d565b6040518080602001828103825283818151815260200191508051906020019080838360005b838110156101cf5780820151818401526020810190506101b4565b50505050905090810190601f1680156101fc5780820380516001836020036101000a031916815260200191505b509250505060405180910390f35b34801561021657600080fd5b5061021f610d2f565b005b34801561022d57600080fd5b5061026c600480360381019080803573ffffffffffffffffffffffffffffffffffffffff16906020019092919080359060200190929190505050610dcc565b604051808215151515815260200191505060405180910390f35b34801561029257600080fd5b5061029b610ef4565b604051808215151515815260200191505060405180910390f35b3480156102c157600080fd5b506102ca610f0b565b6040518082815260200191505060405180910390f35b3480156102ec57600080fd5b506103b7600480360381019080803573ffffffffffffffffffffffffffffffffffffffff16906020019092919080359060200190929190803590602001908201803590602001908080601f0160208091040260200160405190810160405280939291908181526020018383808284378201915050505050509192919290803590602001908201803590602001908080601f0160208091040260200160405190810160405280939291908181526020018383808284378201915050505050509192919290505050610f15565b005b3480156103c557600080fd5b50610424600480360381019080803573ffffffffffffffffffffffffffffffffffffffff169060200190929190803573ffffffffffffffffffffffffffffffffffffffff169060200190929190803590602001909291905050506111e0565b604051808215151515815260200191505060405180910390f35b34801561044a57600080fd5b506104536113ed565b604051808260ff1660ff16815260200191505060405180910390f35b34801561047b57600080fd5b50610484611411565b005b34801561049257600080fd5b5061049b6114b5565b604051808273ffffffffffffffffffffffffffffffffffffffff1673ffffffffffffffffffffffffffffffffffffffff16815260200191505060405180910390f35b3480156104e957600080fd5b506104f26114df565b6040518082815260200191505060405180910390f35b34801561051457600080fd5b5061051d6114e9565b604051808215151515815260200191505060405180910390f35b34801561054357600080fd5b5061062e600480360381019080803573ffffffffffffffffffffffffffffffffffffffff169060200190929190803573ffffffffffffffffffffffffffffffffffffffff16906020019092919080359060200190929190803590602001908201803590602001908080601f0160208091040260200160405190810160405280939291908181526020018383808284378201915050505050509192919290803590602001908201803590602001908080601f01602080910402602001604051908101604052809392919081815260200183838082843782019150505050505091929192905050506114fc565b005b34801561063c57600080fd5b50610671600480360381019080803573ffffffffffffffffffffffffffffffffffffffff169060200190929190505050611544565b6040518082815260200191505060405180910390f35b34801561069357600080fd5b5061077e600480360381019080803590602001908201803590602001908080601f0160208091040260200160405190810160405280939291908181526020018383808284378201915050505050509192919290803590602001908201803590602001908080601f016020809104026020016040519081016040528093929190818152602001838380828437820191505050505050919291929080359060200190929190803573ffffffffffffffffffffffffffffffffffffffff169060200190929190803573ffffffffffffffffffffffffffffffffffffffff16906020019092919050505061158d565b005b34801561078c57600080fd5b506107956116bb565b005b3480156107a357600080fd5b506107ac611761565b604051808273ffffffffffffffffffffffffffffffffffffffff1673ffffffffffffffffffffffffffffffffffffffff16815260200191505060405180910390f35b3480156107fa57600080fd5b5061087f600480360381019080803573ffffffffffffffffffffffffffffffffffffffff16906020019092919080359060200190929190803590602001908201803590602001908080601f016020809104026020016040519081016040528093929190818152602001838380828437820191505050505050919291929050505061178a565b005b34801561088d57600080fd5b506108c2600480360381019080803573ffffffffffffffffffffffffffffffffffffffff1690602001909291905050506119e2565b005b3480156108d057600080fd5b506108d9611b2b565b6040518080602001828103825283818151815260200191508051906020019080838360005b838110156109195780820151818401526020810190506108fe565b50505050905090810190601f1680156109465780820380516001836020036101000a031916815260200191505b509250505060405180910390f35b34801561096057600080fd5b506109e5600480360381019080803573ffffffffffffffffffffffffffffffffffffffff16906020019092919080359060200190929190803590602001908201803590602001908080601f0160208091040260200160405190810160405280939291908181526020018383808284378201915050505050509192919290505050611bcd565b005b3480156109f357600080fd5b50610a32600480360381019080803573ffffffffffffffffffffffffffffffffffffffff16906020019092919080359060200190929190505050611c0e565b604051808215151515815260200191505060405180910390f35b348015610a5857600080fd5b50610a97600480360381019080803573ffffffffffffffffffffffffffffffffffffffff16906020019092919080359060200190929190505050611c80565b005b348015610aa557600080fd5b50610afa600480360381019080803573ffffffffffffffffffffffffffffffffffffffff169060200190929190803573ffffffffffffffffffffffffffffffffffffffff169060200190929190505050611cd0565b604051808215151515815260200191505060405180910390f35b348015610b2057600080fd5b50610b75600480360381019080803573ffffffffffffffffffffffffffffffffffffffff169060200190929190803573ffffffffffffffffffffffffffffffffffffffff169060200190929190505050611d9a565b6040518082815260200191505060405180910390f35b348015610b9757600080fd5b50610bcc600480360381019080803573ffffffffffffffffffffffffffffffffffffffff169060200190929190505050611e3c565b005b348015610bda57600080fd5b50610c19600480360381019080803573ffffffffffffffffffffffffffffffffffffffff16906020019092919080359060200190929190505050611f63565b604051808215151515815260200191505060405180910390f35b348015610c3f57600080fd5b50610c48612105565b005b348015610c5657600080fd5b50610c8b600480360381019080803573ffffffffffffffffffffffffffffffffffffffff1690602001909291905050506121a3565b005b606060028054600181600116156101000203166002900480601f016020809104026020016040519081016040528092919081815260200182805460018160011615610100020316600290048015610d255780601f10610cfa57610100808354040283529160200191610d25565b820191906000526020600020905b815481529060010190602001808311610d0857829003601f168201915b5050505050905090565b610d37611761565b73ffffffffffffffffffffffffffffffffffffffff163373ffffffffffffffffffffffffffffffffffffffff16141515610d7057600080fd5b6001600660016101000a81548160ff021916908315150217905550610dca6040805190810160405280600a81526020017f4552433230546f6b656e00000000000000000000000000000000000000000000815250306122ec565b565b60008060149054906101000a900460ff16151515610de957600080fd5b600660019054906101000a900460ff161515610e0457600080fd5b81600960003373ffffffffffffffffffffffffffffffffffffffff1673ffffffffffffffffffffffffffffffffffffffff16815260200190815260200160002060008573ffffffffffffffffffffffffffffffffffffffff1673ffffffffffffffffffffffffffffffffffffffff168152602001908152602001600020819055508273ffffffffffffffffffffffffffffffffffffffff163373ffffffffffffffffffffffffffffffffffffffff167f8c5be1e5ebec7d5bd14f71427d1e84f3dd0314c0f7b2291e5b200ac8c7c3b925846040518082815260200191505060405180910390a36001905092915050565b6000600660009054906101000a900460ff16905090565b6000600554905090565b610f1d611761565b73ffffffffffffffffffffffffffffffffffffffff163373ffffffffffffffffffffffffffffffffffffffff16141515610f5657600080fd5b610f5f83612471565b610f6e338560008686866124aa565b82610f7885611544565b10151515610f8557600080fd5b610fd783600760008773ffffffffffffffffffffffffffffffffffffffff1673ffffffffffffffffffffffffffffffffffffffff1681526020019081526020016000205461272f90919063ffffffff16565b600760008673ffffffffffffffffffffffffffffffffffffffff1673ffffffffffffffffffffffffffffffffffffffff1681526020019081526020016000208190555061102f8360055461272f90919063ffffffff16565b6005819055508373ffffffffffffffffffffffffffffffffffffffff163373ffffffffffffffffffffffffffffffffffffffff167fa78a9be3a7b862d26933ad85fb11d80ef66b8f972d7cbba06621d583943a4098858585604051808481526020018060200180602001838103835285818151815260200191508051906020019080838360005b838110156110d15780820151818401526020810190506110b6565b50505050905090810190601f1680156110fe5780820380516001836020036101000a031916815260200191505b50838103825284818151815260200191508051906020019080838360005b8381101561113757808201518184015260208101905061111c565b50505050905090810190601f1680156111645780820380516001836020036101000a031916815260200191505b509550505050505060405180910390a3600660019054906101000a900460ff16156111da5760008473ffffffffffffffffffffffffffffffffffffffff167fddf252ad1be2c89b69c2b068fc378daa952ba7f163c4a11628f55a4df523b3ef856040518082815260200191505060405180910390a35b50505050565b60008060149054906101000a900460ff161515156111fd57600080fd5b600660019054906101000a900460ff16151561121857600080fd5b600960008573ffffffffffffffffffffffffffffffffffffffff1673ffffffffffffffffffffffffffffffffffffffff16815260200190815260200160002060003373ffffffffffffffffffffffffffffffffffffffff1673ffffffffffffffffffffffffffffffffffffffff1681526020019081526020016000205482111515156112a357600080fd5b61133282600960008773ffffffffffffffffffffffffffffffffffffffff1673ffffffffffffffffffffffffffffffffffffffff16815260200190815260200160002060003373ffffffffffffffffffffffffffffffffffffffff1673ffffffffffffffffffffffffffffffffffffffff1681526020019081526020016000205461272f90919063ffffffff16565b600960008673ffffffffffffffffffffffffffffffffffffffff1673ffffffffffffffffffffffffffffffffffffffff16815260200190815260200160002060003373ffffffffffffffffffffffffffffffffffffffff1673ffffffffffffffffffffffffffffffffffffffff168152602001908152602001600020819055506113e284848460206040519081016040528060008152503360206040519081016040528060008152506000612748565b600190509392505050565b6000600660019054906101000a900460ff16151561140a57600080fd5b6012905090565b611419611761565b73ffffffffffffffffffffffffffffffffffffffff163373ffffffffffffffffffffffffffffffffffffffff1614151561145257600080fd5b600060149054906101000a900460ff16151561146d57600080fd5b60008060146101000a81548160ff0219169083151502179055507f7805862f689e2f13df9f062ff482ad3ad112aca9e0847911ed832e158c525b3360405160405180910390a1565b6000600160009054906101000a900473ffffffffffffffffffffffffffffffffffffffff16905090565b6000600454905090565b600060149054906101000a900460ff1681565b600060149054906101000a900460ff1615151561151857600080fd5b6115223386611cd0565b151561152d57600080fd5b61153d8585858533866001612748565b5050505050565b6000600760008373ffffffffffffffffffffffffffffffffffffffff1673ffffffffffffffffffffffffffffffffffffffff168152602001908152602001600020549050919050565b600660009054906101000a900460ff161515156115a957600080fd5b84600290805190602001906115bf929190613351565b5083600390805190602001906115d6929190613351565b506001600660016101000a81548160ff0219169083151502179055506115fb81612b18565b6001831015151561160b57600080fd5b8260048190555061161b82612bbe565b61165a6040805190810160405280600a81526020017f4552433230546f6b656e00000000000000000000000000000000000000000000815250306122ec565b6116996040805190810160405280600b81526020017f455243373737546f6b656e000000000000000000000000000000000000000000815250306122ec565b6001600660006101000a81548160ff0219169083151502179055505050505050565b6116c3611761565b73ffffffffffffffffffffffffffffffffffffffff163373ffffffffffffffffffffffffffffffffffffffff161415156116fc57600080fd5b600060149054906101000a900460ff1615151561171857600080fd5b6001600060146101000a81548160ff0219169083151502179055507f6985a02210a168e66602d3235cb6db0e70f92b3ba4d376a33c0f3d9434bff62560405160405180910390a1565b60008060009054906101000a900473ffffffffffffffffffffffffffffffffffffffff16905090565b611792611761565b73ffffffffffffffffffffffffffffffffffffffff163373ffffffffffffffffffffffffffffffffffffffff161415156117cb57600080fd5b6117d482612471565b6117e982600554612c0290919063ffffffff16565b60058190555061184182600760008673ffffffffffffffffffffffffffffffffffffffff1673ffffffffffffffffffffffffffffffffffffffff16815260200190815260200160002054612c0290919063ffffffff16565b600760008573ffffffffffffffffffffffffffffffffffffffff1673ffffffffffffffffffffffffffffffffffffffff168152602001908152602001600020819055506118a533600085856020604051908101604052806000815250866001612c1e565b8273ffffffffffffffffffffffffffffffffffffffff163373ffffffffffffffffffffffffffffffffffffffff167fbcd28e05e57d4bcd5bfcc92a4661d412893e6112c44a2e25d96cfdfc30d5f22e84846040518083815260200180602001828103825283818151815260200191508051906020019080838360005b8381101561193c578082015181840152602081019050611921565b50505050905090810190601f1680156119695780820380516001836020036101000a031916815260200191505b50935050505060405180910390a3600660019054906101000a900460ff16156119dd578273ffffffffffffffffffffffffffffffffffffffff1660007fddf252ad1be2c89b69c2b068fc378daa952ba7f163c4a11628f55a4df523b3ef846040518082815260200191505060405180910390a35b505050565b600060149054906101000a900460ff161515156119fe57600080fd5b3373ffffffffffffffffffffffffffffffffffffffff168173ffffffffffffffffffffffffffffffffffffffff1614151515611a3957600080fd5b6001600860008373ffffffffffffffffffffffffffffffffffffffff1673ffffffffffffffffffffffffffffffffffffffff16815260200190815260200160002060003373ffffffffffffffffffffffffffffffffffffffff1673ffffffffffffffffffffffffffffffffffffffff16815260200190815260200160002060006101000a81548160ff0219169083151502179055503373ffffffffffffffffffffffffffffffffffffffff168173ffffffffffffffffffffffffffffffffffffffff167ff4caeb2d6ca8932a215a353d0703c326ec2d81fc68170f320eb2ab49e9df61f960405160405180910390a350565b606060038054600181600116156101000203166002900480601f016020809104026020016040519081016040528092919081815260200182805460018160011615610100020316600290048015611bc35780601f10611b9857610100808354040283529160200191611bc3565b820191906000526020600020905b815481529060010190602001808311611ba657829003601f168201915b5050505050905090565b600060149054906101000a900460ff16151515611be957600080fd5b611c09338484843360206040519081016040528060008152506001612748565b505050565b60008060149054906101000a900460ff16151515611c2b57600080fd5b600660019054906101000a900460ff161515611c4657600080fd5b611c7633848460206040519081016040528060008152503360206040519081016040528060008152506000612748565b6001905092915050565b600060149054906101000a900460ff16151515611c9c57600080fd5b611ccc33838360206040519081016040528060008152503360206040519081016040528060008152506001612748565b5050565b60008173ffffffffffffffffffffffffffffffffffffffff168373ffffffffffffffffffffffffffffffffffffffff161480611d925750600860008473ffffffffffffffffffffffffffffffffffffffff1673ffffffffffffffffffffffffffffffffffffffff16815260200190815260200160002060008373ffffffffffffffffffffffffffffffffffffffff1673ffffffffffffffffffffffffffffffffffffffff16815260200190815260200160002060009054906101000a900460ff165b905092915050565b6000600660019054906101000a900460ff161515611db757600080fd5b600960008473ffffffffffffffffffffffffffffffffffffffff1673ffffffffffffffffffffffffffffffffffffffff16815260200190815260200160002060008373ffffffffffffffffffffffffffffffffffffffff1673ffffffffffffffffffffffffffffffffffffffff16815260200190815260200160002054905092915050565b611e44611761565b73ffffffffffffffffffffffffffffffffffffffff163373ffffffffffffffffffffffffffffffffffffffff16141515611e7d57600080fd5b600073ffffffffffffffffffffffffffffffffffffffff168173ffffffffffffffffffffffffffffffffffffffff1614151515611eb957600080fd5b7f8be0079c531659141344cd1fd0a4f28419497f9722a3daafe3b4186f6b6457e0611ee2611761565b82604051808373ffffffffffffffffffffffffffffffffffffffff1673ffffffffffffffffffffffffffffffffffffffff1681526020018273ffffffffffffffffffffffffffffffffffffffff1673ffffffffffffffffffffffffffffffffffffffff1681526020019250505060405180910390a1611f6081612b18565b50565b60008060149054906101000a900460ff16151515611f8057600080fd5b600660019054906101000a900460ff161515611f9b57600080fd5b81600960003373ffffffffffffffffffffffffffffffffffffffff1673ffffffffffffffffffffffffffffffffffffffff16815260200190815260200160002060008573ffffffffffffffffffffffffffffffffffffffff1673ffffffffffffffffffffffffffffffffffffffff16815260200190815260200160002081905550612096833385856040805190810160405280600381526020017f30783000000000000000000000000000000000000000000000000000000000008152506040805190810160405280600381526020017f30783000000000000000000000000000000000000000000000000000000000008152506001612ec3565b8273ffffffffffffffffffffffffffffffffffffffff163373ffffffffffffffffffffffffffffffffffffffff167f8c5be1e5ebec7d5bd14f71427d1e84f3dd0314c0f7b2291e5b200ac8c7c3b925846040518082815260200191505060405180910390a36001905092915050565b61210d611761565b73ffffffffffffffffffffffffffffffffffffffff163373ffffffffffffffffffffffffffffffffffffffff1614151561214657600080fd5b6000600660016101000a81548160ff0219169083151502179055506121a16040805190810160405280600a81526020017f4552433230546f6b656e0000000000000000000000000000000000000000000081525060006122ec565b565b600060149054906101000a900460ff161515156121bf57600080fd5b3373ffffffffffffffffffffffffffffffffffffffff168173ffffffffffffffffffffffffffffffffffffffff16141515156121fa57600080fd5b6000600860008373ffffffffffffffffffffffffffffffffffffffff1673ffffffffffffffffffffffffffffffffffffffff16815260200190815260200160002060003373ffffffffffffffffffffffffffffffffffffffff1673ffffffffffffffffffffffffffffffffffffffff16815260200190815260200160002060006101000a81548160ff0219169083151502179055503373ffffffffffffffffffffffffffffffffffffffff168173ffffffffffffffffffffffffffffffffffffffff167f50546e66e5f44d728365dc3908c63bc5cfeeab470722c1677e3073a6ac294aa160405160405180910390a350565b6000826040518082805190602001908083835b60208310151561232457805182526020820191506020810190506020830392506122ff565b6001836020036101000a03801982511681845116808217855250505050505090500191505060405180910390209050600160009054906101000a900473ffffffffffffffffffffffffffffffffffffffff1673ffffffffffffffffffffffffffffffffffffffff166329965a1d3083856040518463ffffffff167c0100000000000000000000000000000000000000000000000000000000028152600401808473ffffffffffffffffffffffffffffffffffffffff1673ffffffffffffffffffffffffffffffffffffffff16815260200183600019166000191681526020018273ffffffffffffffffffffffffffffffffffffffff1673ffffffffffffffffffffffffffffffffffffffff1681526020019350505050600060405180830381600087803b15801561245457600080fd5b505af1158015612468573d6000803e3d6000fd5b50505050505050565b8061249b60045461248d6004548561314e90919063ffffffff16565b61316490919063ffffffff16565b1415156124a757600080fd5b50565b60008060149054906101000a900460ff161515156124c757600080fd5b612506866040805190810160405280601281526020017f455243373737546f6b656e7353656e646572000000000000000000000000000081525061319c565b905060008173ffffffffffffffffffffffffffffffffffffffff16141515612726578073ffffffffffffffffffffffffffffffffffffffff166375ab97828888888888886040518763ffffffff167c0100000000000000000000000000000000000000000000000000000000028152600401808773ffffffffffffffffffffffffffffffffffffffff1673ffffffffffffffffffffffffffffffffffffffff1681526020018673ffffffffffffffffffffffffffffffffffffffff1673ffffffffffffffffffffffffffffffffffffffff1681526020018573ffffffffffffffffffffffffffffffffffffffff1673ffffffffffffffffffffffffffffffffffffffff1681526020018481526020018060200180602001838103835285818151815260200191508051906020019080838360005b8381101561265557808201518184015260208101905061263a565b50505050905090810190601f1680156126825780820380516001836020036101000a031916815260200191505b50838103825284818151815260200191508051906020019080838360005b838110156126bb5780820151818401526020810190506126a0565b50505050905090810190601f1680156126e85780820380516001836020036101000a031916815260200191505b5098505050505050505050600060405180830381600087803b15801561270d57600080fd5b505af1158015612721573d6000803e3d6000fd5b505050505b50505050505050565b600082821115151561273d57fe5b818303905092915050565b600060149054906101000a900460ff1615151561276457600080fd5b61276d85612471565b61277b8388888888876124aa565b600073ffffffffffffffffffffffffffffffffffffffff168673ffffffffffffffffffffffffffffffffffffffff16141515156127b757600080fd5b84600760008973ffffffffffffffffffffffffffffffffffffffff1673ffffffffffffffffffffffffffffffffffffffff168152602001908152602001600020541015151561280557600080fd5b61285785600760008a73ffffffffffffffffffffffffffffffffffffffff1673ffffffffffffffffffffffffffffffffffffffff1681526020019081526020016000205461272f90919063ffffffff16565b600760008973ffffffffffffffffffffffffffffffffffffffff1673ffffffffffffffffffffffffffffffffffffffff168152602001908152602001600020819055506128ec85600760008973ffffffffffffffffffffffffffffffffffffffff1673ffffffffffffffffffffffffffffffffffffffff16815260200190815260200160002054612c0290919063ffffffff16565b600760008873ffffffffffffffffffffffffffffffffffffffff1673ffffffffffffffffffffffffffffffffffffffff1681526020019081526020016000208190555061293e83888888888787612c1e565b8573ffffffffffffffffffffffffffffffffffffffff168773ffffffffffffffffffffffffffffffffffffffff168473ffffffffffffffffffffffffffffffffffffffff167f06b541ddaa720db2b10a4d0cdac39b8d360425fc073085fac19bc82614677987888887604051808481526020018060200180602001838103835285818151815260200191508051906020019080838360005b838110156129f15780820151818401526020810190506129d6565b50505050905090810190601f168015612a1e5780820380516001836020036101000a031916815260200191505b50838103825284818151815260200191508051906020019080838360005b83811015612a57578082015181840152602081019050612a3c565b50505050905090810190601f168015612a845780820380516001836020036101000a031916815260200191505b509550505050505060405180910390a4600660019054906101000a900460ff1615612b0f578573ffffffffffffffffffffffffffffffffffffffff168773ffffffffffffffffffffffffffffffffffffffff167fddf252ad1be2c89b69c2b068fc378daa952ba7f163c4a11628f55a4df523b3ef876040518082815260200191505060405180910390a35b50505050505050565b806000806101000a81548173ffffffffffffffffffffffffffffffffffffffff021916908373ffffffffffffffffffffffffffffffffffffffff1602179055507f50146d0e3c60aa1d17a70635b05494f864e86144a2201275021014fbf08bafe281604051808273ffffffffffffffffffffffffffffffffffffffff1673ffffffffffffffffffffffffffffffffffffffff16815260200191505060405180910390a150565b80600160006101000a81548173ffffffffffffffffffffffffffffffffffffffff021916908373ffffffffffffffffffffffffffffffffffffffff16021790555050565b60008183019050828110151515612c1557fe5b80905092915050565b60008060149054906101000a900460ff16151515612c3b57600080fd5b612c7a866040805190810160405280601581526020017f455243373737546f6b656e73526563697069656e74000000000000000000000081525061319c565b905060008173ffffffffffffffffffffffffffffffffffffffff16141515612e9d578073ffffffffffffffffffffffffffffffffffffffff166223de298989898989896040518763ffffffff167c0100000000000000000000000000000000000000000000000000000000028152600401808773ffffffffffffffffffffffffffffffffffffffff1673ffffffffffffffffffffffffffffffffffffffff1681526020018673ffffffffffffffffffffffffffffffffffffffff1673ffffffffffffffffffffffffffffffffffffffff1681526020018573ffffffffffffffffffffffffffffffffffffffff1673ffffffffffffffffffffffffffffffffffffffff1681526020018481526020018060200180602001838103835285818151815260200191508051906020019080838360005b83811015612dc8578082015181840152602081019050612dad565b50505050905090810190601f168015612df55780820380516001836020036101000a031916815260200191505b50838103825284818151815260200191508051906020019080838360005b83811015612e2e578082015181840152602081019050612e13565b50505050905090810190601f168015612e5b5780820380516001836020036101000a031916815260200191505b5098505050505050505050600060405180830381600087803b158015612e8057600080fd5b505af1158015612e94573d6000803e3d6000fd5b50505050612eb9565b8115612eb857612eac86613315565b1515612eb757600080fd5b5b5b5050505050505050565b6000612f04866040805190810160405280601481526020017f455243373737546f6b656e734f70657261746f7200000000000000000000000081525061319c565b905060008173ffffffffffffffffffffffffffffffffffffffff16141515613128578073ffffffffffffffffffffffffffffffffffffffff166332035ca68989898989896040518763ffffffff167c0100000000000000000000000000000000000000000000000000000000028152600401808773ffffffffffffffffffffffffffffffffffffffff1673ffffffffffffffffffffffffffffffffffffffff1681526020018673ffffffffffffffffffffffffffffffffffffffff1673ffffffffffffffffffffffffffffffffffffffff1681526020018573ffffffffffffffffffffffffffffffffffffffff1673ffffffffffffffffffffffffffffffffffffffff1681526020018481526020018060200180602001838103835285818151815260200191508051906020019080838360005b83811015613053578082015181840152602081019050613038565b50505050905090810190601f1680156130805780820380516001836020036101000a031916815260200191505b50838103825284818151815260200191508051906020019080838360005b838110156130b957808201518184015260208101905061309e565b50505050905090810190601f1680156130e65780820380516001836020036101000a031916815260200191505b5098505050505050505050600060405180830381600087803b15801561310b57600080fd5b505af115801561311f573d6000803e3d6000fd5b50505050613144565b81156131435761313786613315565b151561314257600080fd5b5b5b5050505050505050565b6000818381151561315b57fe5b04905092915050565b6000808314156131775760009050613196565b818302905081838281151561318857fe5b0414151561319257fe5b8090505b92915050565b600080826040518082805190602001908083835b6020831015156131d557805182526020820191506020810190506020830392506131b0565b6001836020036101000a03801982511681845116808217855250505050505090500191505060405180910390209050600160009054906101000a900473ffffffffffffffffffffffffffffffffffffffff1673ffffffffffffffffffffffffffffffffffffffff1663aabbb8ca85836040518363ffffffff167c0100000000000000000000000000000000000000000000000000000000028152600401808373ffffffffffffffffffffffffffffffffffffffff1673ffffffffffffffffffffffffffffffffffffffff168152602001826000191660001916815260200192505050602060405180830381600087803b1580156132d157600080fd5b505af11580156132e5573d6000803e3d6000fd5b505050506040513d60208110156132fb57600080fd5b810190808051906020019092919050505091505092915050565b60008060008373ffffffffffffffffffffffffffffffffffffffff161415613340576000915061334b565b823b90506000811491505b50919050565b828054600181600116156101000203166002900490600052602060002090601f016020900481019282601f1061339257805160ff19168380011785556133c0565b828001600101855582156133c0579182015b828111156133bf5782518255916020019190600101906133a4565b5b5090506133cd91906133d1565b5090565b6133f391905b808211156133ef5760008160009055506001016133d7565b5090565b905600a165627a7a7230582047529757dd33d281304794b963d68d77361c01c74d77c51c8ebda3e2d96693140029",
  "source": "/* This Source Code Form is subject to the terms of the Mozilla Public\n * License, v. 2.0. If a copy of the MPL was not distributed with this\n * file, You can obtain one at http://mozilla.org/MPL/2.0/. */\npragma solidity 0.4.24;\n\nimport \"../eip820/ERC820Implementer.sol\";\nimport \"../lifecycle/Pausable.sol\";\nimport \"../../node_modules/openzeppelin-solidity/contracts/math/SafeMath.sol\";\nimport \"./ERC777Token.sol\";\nimport \"./ERC777TokensSender.sol\";\nimport \"./ERC777TokensRecipient.sol\";\nimport \"./ERC777TokensOperator.sol\";\nimport \"../eip20/ERC20Token.sol\";\n\n\ncontract Basic777 is Pausable, ERC20Token, ERC777Token, ERC820Implementer {\n    using SafeMath for uint256;\n\n    string private mName;\n    string private mSymbol;\n    uint256 private mGranularity;\n    uint256 private mTotalSupply;\n    bool private _initialized;\n\n    bool private mErc20compatible;\n\n    mapping(address => uint) private mBalances;\n    mapping(address => mapping(address => bool)) private mAuthorized;\n    mapping(address => mapping(address => uint256)) private mAllowed;\n\n    /* -- Constructor -- */\n    constructor () public { }\n\n    /* -- Initializer -- */\n    //\n    /// @notice Constructor to create a ReferenceToken\n    /// @param _name Name of the new token\n    /// @param _symbol Symbol of the new token.\n    /// @param _granularity Minimum transferable chunk.\n    function initialize (\n        string _name,\n        string _symbol,\n        uint256 _granularity,\n        address _eip820RegistryAddr,\n        address _owner\n    )  public \n    {\n        require(!_initialized);\n        mName = _name;\n        mSymbol = _symbol;\n        mErc20compatible = true;\n        setOwner(_owner);\n        require(_granularity >= 1);\n        mGranularity = _granularity;\n        setIntrospectionRegistry(_eip820RegistryAddr);\n        setInterfaceImplementation(\"ERC20Token\", this);\n        setInterfaceImplementation(\"ERC777Token\", this);\n        _initialized = true;\n    }\n    function initialized() public  view returns(bool) {\n        return _initialized;\n    }\n\n    function getIntrospectionRegistry() public view returns(address){\n        return address(erc820Registry);\n    }\n\n    /* -- ERC777 Interface Implementation -- */\n    //\n    /// @return the name of the token\n    function name() public constant returns (string) { return mName; }\n\n    /// @return the symbol of the token\n    function symbol() public constant returns (string) { return mSymbol; }\n\n    /// @return the granularity of the token\n    function granularity() public constant returns (uint256) { return mGranularity; }\n\n    /// @return the total supply of the token\n    function totalSupply() public constant returns (uint256) { return mTotalSupply; }\n\n    /// @notice Return the account balance of some account\n    /// @param _tokenHolder Address for which the balance is returned\n    /// @return the balance of `_tokenAddress`.\n    function balanceOf(address _tokenHolder) public constant returns (uint256) { return mBalances[_tokenHolder]; }\n\n    /// @notice Send `_amount` of tokens to address `_to`\n    /// @param _to The address of the recipient\n    /// @param _amount The number of tokens to be sent\n    function send(address _to, uint256 _amount) public whenNotPaused {\n        doSend(msg.sender, _to, _amount, \"\", msg.sender, \"\", true);\n    }\n\n    /// @notice Send `_amount` of tokens to address `_to` passing `_userData` to the recipient\n    /// @param _to The address of the recipient\n    /// @param _amount The number of tokens to be sent\n    function send(address _to, uint256 _amount, bytes _userData) public whenNotPaused {\n        doSend(msg.sender, _to, _amount, _userData, msg.sender, \"\", true);\n    }\n\n    /// @notice Authorize a third party `_operator` to manage (send) `msg.sender`'s tokens.\n    /// @param _operator The operator that wants to be Authorized\n    function authorizeOperator(address _operator) public whenNotPaused {\n        require(_operator != msg.sender);\n        mAuthorized[_operator][msg.sender] = true;\n        AuthorizedOperator(_operator, msg.sender);\n    }\n\n    /// @notice extended 777 functionality that gives an allowance and calls the new operator.\n    ///  `msg.sender` approves `_spender` to spend `_amount` tokens on its behalf.\n    /// @param _operator The address of the account able to transfer the tokens\n    /// @param _amount The number of tokens to be approved for transfer\n    /// @return `true`, if the approve can't be done, it should fail.\n    function authorizeOperatorAndCall(address _operator, uint256 _amount) public whenNotPaused erc20 returns (bool success) {\n        mAllowed[msg.sender][_operator] = _amount;\n        callOperator(_operator, msg.sender, _operator, _amount, \"0x0\", \"0x0\", true);\n        Approval(msg.sender, _operator, _amount);\n        return true;\n    }\n\n    /// @notice Revoke a third party `_operator`'s rights to manage (send) `msg.sender`'s tokens.\n    /// @param _operator The operator that wants to be Revoked\n    function revokeOperator(address _operator) public whenNotPaused {\n        require(_operator != msg.sender);\n        mAuthorized[_operator][msg.sender] = false;\n        RevokedOperator(_operator, msg.sender);\n    }\n\n    /// @notice Check whether the `_operator` address is allowed to manage the tokens held by `_tokenHolder` address.\n    /// @param _operator address to check if it has the right to manage the tokens\n    /// @param _tokenHolder address which holds the tokens to be managed\n    /// @return `true` if `_operator` is authorized for `_tokenHolder`\n    function isOperatorFor(address _operator, address _tokenHolder) public constant returns (bool) {\n        return _operator == _tokenHolder || mAuthorized[_operator][_tokenHolder];\n    }\n\n    /// @notice Send `_amount` of tokens on behalf of the address `from` to the address `to`.\n    /// @param _from The address holding the tokens being sent\n    /// @param _to The address of the recipient\n    /// @param _amount The number of tokens to be sent\n    /// @param _userData Data generated by the user to be sent to the recipient\n    /// @param _operatorData Data generated by the operator to be sent to the recipient\n    function operatorSend(address _from, address _to, uint256 _amount, bytes _userData, bytes _operatorData) public whenNotPaused {\n        require(isOperatorFor(msg.sender, _from));\n        doSend(_from, _to, _amount, _userData, msg.sender, _operatorData, true);\n    }\n\n    /* -- Mint And Burn Functions (not part of the ERC777 standard, only the Events/tokensReceived are) -- */\n    //\n    /// @notice Generates `_amount` tokens to be assigned to `_tokenHolder`\n    ///  Sample mint function to showcase the use of the `Minted` event and the logic to notify the recipient.\n    /// @param _tokenHolder The address that will be assigned the new tokens\n    /// @param _amount The quantity of tokens generated\n    /// @param _operatorData Data that will be passed to the recipient as a first transfer\n    function mint(address _tokenHolder, uint256 _amount, bytes _operatorData) public onlyOwner {\n        requireMultiple(_amount);\n        mTotalSupply = mTotalSupply.add(_amount);\n        mBalances[_tokenHolder] = mBalances[_tokenHolder].add(_amount);\n\n        callRecipient(msg.sender, 0x0, _tokenHolder, _amount, \"\", _operatorData, true);\n\n        Minted(msg.sender, _tokenHolder, _amount, _operatorData);\n        if (mErc20compatible) { Transfer(0x0, _tokenHolder, _amount); }\n    }\n\n    /// @notice Burns `_amount` tokens from `_tokenHolder`\n    ///  Sample burn function to showcase the use of the `Burned` event.\n    /// @param _tokenHolder The address that will lose the tokens\n    /// @param _amount The quantity of tokens to burn\n    function burn(address _tokenHolder, uint256 _amount, bytes _userData, bytes _operatorData) public onlyOwner {\n        requireMultiple(_amount);\n\n        callSender(msg.sender, _tokenHolder, 0x0, _amount, _userData, _operatorData);\n\n        require(balanceOf(_tokenHolder) >= _amount);\n\n        mBalances[_tokenHolder] = mBalances[_tokenHolder].sub(_amount);\n        mTotalSupply = mTotalSupply.sub(_amount);\n\n        Burned(msg.sender, _tokenHolder, _amount, _userData, _operatorData);\n        if (mErc20compatible) { Transfer(_tokenHolder, 0x0, _amount); }\n    }\n\n    /* -- ERC20 Compatible Methods -- */\n    //\n    /// @notice This modifier is applied to erc20 obsolete methods that are\n    ///  implemented only to maintain backwards compatibility. When the erc20\n    ///  compatibility is disabled, this methods will fail.\n    modifier erc20 () {\n        require(mErc20compatible);\n        _;\n    }\n\n    /// @notice Disables the ERC20 interface. This function can only be called\n    ///  by the owner.\n    function disableERC20() public onlyOwner {\n        mErc20compatible = false;\n        setInterfaceImplementation(\"ERC20Token\", 0x0);\n    }\n\n    /// @notice Re enables the ERC20 interface. This function can only be called\n    ///  by the owner.\n    function enableERC20() public onlyOwner {\n        mErc20compatible = true;\n        setInterfaceImplementation(\"ERC20Token\", this);\n    }\n\n    /// @notice For Backwards compatibility\n    /// @return The decimls of the token. Forced to 18 in ERC777.\n    function decimals() public erc20 constant returns (uint8) { return uint8(18); }\n\n    /// @notice ERC20 backwards compatible transfer.\n    /// @param _to The address of the recipient\n    /// @param _amount The number of tokens to be transferred\n    /// @return `true`, if the transfer can't be done, it should fail.\n    function transfer(address _to, uint256 _amount) public whenNotPaused erc20 returns (bool success) {\n        doSend(msg.sender, _to, _amount, \"\", msg.sender, \"\", false);\n        return true;\n    }\n\n    /// @notice ERC20 backwards compatible transferFrom.\n    /// @param _from The address holding the tokens being transferred\n    /// @param _to The address of the recipient\n    /// @param _amount The number of tokens to be transferred\n    /// @return `true`, if the transfer can't be done, it should fail.\n    function transferFrom(address _from, address _to, uint256 _amount) public whenNotPaused erc20 returns (bool success) {\n        require(_amount <= mAllowed[_from][msg.sender]);\n\n        // Cannot be after doSend because of tokensReceived re-entry\n        mAllowed[_from][msg.sender] = mAllowed[_from][msg.sender].sub(_amount);\n        doSend(_from, _to, _amount, \"\", msg.sender, \"\", false);\n        return true;\n    }\n\n    /// @notice ERC20 backwards compatible approve.\n    ///  `msg.sender` approves `_spender` to spend `_amount` tokens on its behalf.\n    /// @param _spender The address of the account able to transfer the tokens\n    /// @param _amount The number of tokens to be approved for transfer\n    /// @return `true`, if the approve can't be done, it should fail.\n    function approve(address _spender, uint256 _amount) public whenNotPaused erc20 returns (bool success) {\n        mAllowed[msg.sender][_spender] = _amount;\n        Approval(msg.sender, _spender, _amount);\n        return true;\n    }\n\n    /// @notice ERC20 backwards compatible allowance.\n    ///  This function makes it easy to read the `allowed[]` map\n    /// @param _owner The address of the account that owns the token\n    /// @param _spender The address of the account able to transfer the tokens\n    /// @return Amount of remaining tokens of _owner that _spender is allowed\n    ///  to spend\n    function allowance(address _owner, address _spender) public erc20 constant returns (uint256 remaining) {\n        return mAllowed[_owner][_spender];\n    }\n\n    /* -- Helper Functions -- */\n    //\n    /// @notice Internal function that ensures `_amount` is multiple of the granularity\n    /// @param _amount The quantity that want's to be checked\n    function requireMultiple(uint256 _amount) internal view {\n        require(_amount.div(mGranularity).mul(mGranularity) == _amount);\n    }\n\n    /// @notice Check whether an address is a regular address or not.\n    /// @param _addr Address of the contract that has to be checked\n    /// @return `true` if `_addr` is a regular address (not a contract)\n    function isRegularAddress(address _addr) internal constant returns(bool) {\n        if (_addr == 0) { return false; }\n        uint size;\n        assembly { size := extcodesize(_addr) } // solhint-disable-line no-inline-assembly\n        return size == 0;\n    }\n\n    /// @notice Helper function actually performing the sending of tokens.\n    /// @param _from The address holding the tokens being sent\n    /// @param _to The address of the recipient\n    /// @param _amount The number of tokens to be sent\n    /// @param _userData Data generated by the user to be passed to the recipient\n    /// @param _operatorData Data generated by the operator to be passed to the recipient\n    /// @param _preventLocking `true` if you want this function to throw when tokens are sent to a contract not\n    ///  implementing `erc777_tokenHolder`.\n    ///  ERC777 native Send functions MUST set this parameter to `true`, and backwards compatible ERC20 transfer\n    ///  functions SHOULD set this parameter to `false`.\n    function doSend(\n        address _from,\n        address _to,\n        uint256 _amount,\n        bytes _userData,\n        address _operator,\n        bytes _operatorData,\n        bool _preventLocking\n    )\n        private whenNotPaused\n    {\n        requireMultiple(_amount);\n\n        callSender(_operator, _from, _to, _amount, _userData, _operatorData);\n\n        require(_to != address(0));          // forbid sending to 0x0 (=burning)\n        require(mBalances[_from] >= _amount); // ensure enough funds\n\n        mBalances[_from] = mBalances[_from].sub(_amount);\n        mBalances[_to] = mBalances[_to].add(_amount);\n\n        callRecipient(_operator, _from, _to, _amount, _userData, _operatorData, _preventLocking);\n\n        Sent(_operator, _from, _to, _amount, _userData, _operatorData);\n        if (mErc20compatible) { Transfer(_from, _to, _amount); }\n    }\n\n    /// @notice Helper function that checks for ERC777TokensRecipient on the recipient and calls it.\n    ///  May throw according to `_preventLocking`\n    /// @param _from The address holding the tokens being sent\n    /// @param _to The address of the recipient\n    /// @param _amount The number of tokens to be sent\n    /// @param _userData Data generated by the user to be passed to the recipient\n    /// @param _operatorData Data generated by the operator to be passed to the recipient\n    /// @param _preventLocking `true` if you want this function to throw when tokens are sent to a contract not\n    ///  implementing `ERC777TokensRecipient`.\n    ///  ERC777 native Send functions MUST set this parameter to `true`, and backwards compatible ERC20 transfer\n    ///  functions SHOULD set this parameter to `false`.\n    function callRecipient(\n        address _operator,\n        address _from,\n        address _to,\n        uint256 _amount,\n        bytes _userData,\n        bytes _operatorData,\n        bool _preventLocking\n    ) private whenNotPaused {\n        address recipientImplementation = interfaceAddr(_to, \"ERC777TokensRecipient\");\n        if (recipientImplementation != 0) {\n            ERC777TokensRecipient(recipientImplementation).tokensReceived(\n                _operator, _from, _to, _amount, _userData, _operatorData);\n        } else if (_preventLocking) {\n            require(isRegularAddress(_to));\n        }\n    }\n\n    /// @notice Helper function that checks for ERC777TokensSender on the sender and calls it.\n    ///  May throw according to `_preventLocking`\n    /// @param _from The address holding the tokens being sent\n    /// @param _to The address of the recipient\n    /// @param _amount The amount of tokens to be sent\n    /// @param _userData Data generated by the user to be passed to the recipient\n    /// @param _operatorData Data generated by the operator to be passed to the recipient\n    ///  implementing `ERC777TokensSender`.\n    ///  ERC777 native Send functions MUST set this parameter to `true`, and backwards compatible ERC20 transfer\n    ///  functions SHOULD set this parameter to `false`.\n    function callSender(\n        address _operator,\n        address _from,\n        address _to,\n        uint256 _amount,\n        bytes _userData,\n        bytes _operatorData\n    ) private whenNotPaused {\n        address senderImplementation = interfaceAddr(_from, \"ERC777TokensSender\");\n        if (senderImplementation != 0) {\n            ERC777TokensSender(senderImplementation).tokensToSend(\n                _operator, _from, _to, _amount, _userData, _operatorData);\n        }\n    }\n\n    /// @notice Helper function that checks for IEIP777TokensOperator on the recipient and calls it.\n    ///  May throw according to `_preventLocking`\n    /// @param _from The address holding the tokens being sent\n    /// @param _to The address of the recipient\n    /// @param _value The amount of tokens to be sent\n    /// @param _userData Data generated by the user to be passed to the recipient\n    /// @param _operatorData Data generated by the operator to be passed to the recipient\n    /// @param _preventLocking `true` if you want this function to throw when tokens are sent to a contract not\n    ///  implementing `IEIP777TokensOperator`\n    ///  ERC777 native Send functions MUST set this parameter to `true`, and backwards compatible ERC20 transfer\n    ///  functions SHOULD set this parameter to `false`.\n    function callOperator(\n        address _operator,\n        address _from,\n        address _to,\n        uint256 _value,\n        bytes _userData,\n        bytes _operatorData,\n        bool _preventLocking\n    ) private\n    {\n        address recipientImplementation = interfaceAddr(_to, \"ERC777TokensOperator\");\n        if (recipientImplementation != 0) {\n           ERC777TokensOperator(recipientImplementation).madeOperatorForTokens(\n                _operator, _from, _to, _value, _userData, _operatorData);\n        } else if (_preventLocking) {\n            require(isRegularAddress(_to));\n        }\n    }\n}",
  "sourcePath": "/home/ubuntu/dev/kpx/contracts/eip777/Basic777.sol",
  "compiler": {
    "name": "solc",
    "version": "0.4.24+commit.e67f0147.Emscripten.clang"
  },
  "schemaVersion": "2.0.1",
  "updatedAt": "2018-07-30T08:47:46.523Z"
}