{
  "contractName": "Basic777",
  "abi": [
    {
      "constant": false,
      "inputs": [],
      "name": "renounceOwnership",
      "outputs": [],
      "payable": false,
      "stateMutability": "nonpayable",
      "type": "function"
    },
    {
      "constant": true,
      "inputs": [],
      "name": "owner",
      "outputs": [
        {
          "name": "",
          "type": "address"
        }
      ],
      "payable": false,
      "stateMutability": "view",
      "type": "function"
    },
    {
      "constant": false,
      "inputs": [
        {
          "name": "_newOwner",
          "type": "address"
        }
      ],
      "name": "transferOwnership",
      "outputs": [],
      "payable": false,
      "stateMutability": "nonpayable",
      "type": "function"
    },
    {
      "inputs": [
        {
          "name": "_name",
          "type": "string"
        },
        {
          "name": "_symbol",
          "type": "string"
        },
        {
          "name": "_granularity",
          "type": "uint256"
        }
      ],
      "payable": false,
      "stateMutability": "nonpayable",
      "type": "constructor"
    },
    {
      "anonymous": false,
      "inputs": [
        {
          "indexed": true,
          "name": "operator",
          "type": "address"
        },
        {
          "indexed": true,
          "name": "from",
          "type": "address"
        },
        {
          "indexed": true,
          "name": "to",
          "type": "address"
        },
        {
          "indexed": false,
          "name": "amount",
          "type": "uint256"
        },
        {
          "indexed": false,
          "name": "userData",
          "type": "bytes"
        },
        {
          "indexed": false,
          "name": "operatorData",
          "type": "bytes"
        }
      ],
      "name": "Sent",
      "type": "event"
    },
    {
      "anonymous": false,
      "inputs": [
        {
          "indexed": true,
          "name": "operator",
          "type": "address"
        },
        {
          "indexed": true,
          "name": "to",
          "type": "address"
        },
        {
          "indexed": false,
          "name": "amount",
          "type": "uint256"
        },
        {
          "indexed": false,
          "name": "operatorData",
          "type": "bytes"
        }
      ],
      "name": "Minted",
      "type": "event"
    },
    {
      "anonymous": false,
      "inputs": [
        {
          "indexed": true,
          "name": "operator",
          "type": "address"
        },
        {
          "indexed": true,
          "name": "from",
          "type": "address"
        },
        {
          "indexed": false,
          "name": "amount",
          "type": "uint256"
        },
        {
          "indexed": false,
          "name": "userData",
          "type": "bytes"
        },
        {
          "indexed": false,
          "name": "operatorData",
          "type": "bytes"
        }
      ],
      "name": "Burned",
      "type": "event"
    },
    {
      "anonymous": false,
      "inputs": [
        {
          "indexed": true,
          "name": "operator",
          "type": "address"
        },
        {
          "indexed": true,
          "name": "tokenHolder",
          "type": "address"
        }
      ],
      "name": "AuthorizedOperator",
      "type": "event"
    },
    {
      "anonymous": false,
      "inputs": [
        {
          "indexed": true,
          "name": "operator",
          "type": "address"
        },
        {
          "indexed": true,
          "name": "tokenHolder",
          "type": "address"
        }
      ],
      "name": "RevokedOperator",
      "type": "event"
    },
    {
      "anonymous": false,
      "inputs": [
        {
          "indexed": true,
          "name": "from",
          "type": "address"
        },
        {
          "indexed": true,
          "name": "to",
          "type": "address"
        },
        {
          "indexed": false,
          "name": "amount",
          "type": "uint256"
        }
      ],
      "name": "Transfer",
      "type": "event"
    },
    {
      "anonymous": false,
      "inputs": [
        {
          "indexed": true,
          "name": "owner",
          "type": "address"
        },
        {
          "indexed": true,
          "name": "spender",
          "type": "address"
        },
        {
          "indexed": false,
          "name": "amount",
          "type": "uint256"
        }
      ],
      "name": "Approval",
      "type": "event"
    },
    {
      "anonymous": false,
      "inputs": [
        {
          "indexed": true,
          "name": "previousOwner",
          "type": "address"
        }
      ],
      "name": "OwnershipRenounced",
      "type": "event"
    },
    {
      "anonymous": false,
      "inputs": [
        {
          "indexed": true,
          "name": "previousOwner",
          "type": "address"
        },
        {
          "indexed": true,
          "name": "newOwner",
          "type": "address"
        }
      ],
      "name": "OwnershipTransferred",
      "type": "event"
    },
    {
      "constant": true,
      "inputs": [],
      "name": "name",
      "outputs": [
        {
          "name": "",
          "type": "string"
        }
      ],
      "payable": false,
      "stateMutability": "view",
      "type": "function"
    },
    {
      "constant": true,
      "inputs": [],
      "name": "symbol",
      "outputs": [
        {
          "name": "",
          "type": "string"
        }
      ],
      "payable": false,
      "stateMutability": "view",
      "type": "function"
    },
    {
      "constant": true,
      "inputs": [],
      "name": "granularity",
      "outputs": [
        {
          "name": "",
          "type": "uint256"
        }
      ],
      "payable": false,
      "stateMutability": "view",
      "type": "function"
    },
    {
      "constant": true,
      "inputs": [],
      "name": "totalSupply",
      "outputs": [
        {
          "name": "",
          "type": "uint256"
        }
      ],
      "payable": false,
      "stateMutability": "view",
      "type": "function"
    },
    {
      "constant": true,
      "inputs": [
        {
          "name": "_tokenHolder",
          "type": "address"
        }
      ],
      "name": "balanceOf",
      "outputs": [
        {
          "name": "",
          "type": "uint256"
        }
      ],
      "payable": false,
      "stateMutability": "view",
      "type": "function"
    },
    {
      "constant": false,
      "inputs": [
        {
          "name": "_to",
          "type": "address"
        },
        {
          "name": "_amount",
          "type": "uint256"
        }
      ],
      "name": "send",
      "outputs": [],
      "payable": false,
      "stateMutability": "nonpayable",
      "type": "function"
    },
    {
      "constant": false,
      "inputs": [
        {
          "name": "_to",
          "type": "address"
        },
        {
          "name": "_amount",
          "type": "uint256"
        },
        {
          "name": "_userData",
          "type": "bytes"
        }
      ],
      "name": "send",
      "outputs": [],
      "payable": false,
      "stateMutability": "nonpayable",
      "type": "function"
    },
    {
      "constant": false,
      "inputs": [
        {
          "name": "_operator",
          "type": "address"
        }
      ],
      "name": "authorizeOperator",
      "outputs": [],
      "payable": false,
      "stateMutability": "nonpayable",
      "type": "function"
    },
    {
      "constant": false,
      "inputs": [
        {
          "name": "_operator",
          "type": "address"
        }
      ],
      "name": "revokeOperator",
      "outputs": [],
      "payable": false,
      "stateMutability": "nonpayable",
      "type": "function"
    },
    {
      "constant": true,
      "inputs": [
        {
          "name": "_operator",
          "type": "address"
        },
        {
          "name": "_tokenHolder",
          "type": "address"
        }
      ],
      "name": "isOperatorFor",
      "outputs": [
        {
          "name": "",
          "type": "bool"
        }
      ],
      "payable": false,
      "stateMutability": "view",
      "type": "function"
    },
    {
      "constant": false,
      "inputs": [
        {
          "name": "_from",
          "type": "address"
        },
        {
          "name": "_to",
          "type": "address"
        },
        {
          "name": "_amount",
          "type": "uint256"
        },
        {
          "name": "_userData",
          "type": "bytes"
        },
        {
          "name": "_operatorData",
          "type": "bytes"
        }
      ],
      "name": "operatorSend",
      "outputs": [],
      "payable": false,
      "stateMutability": "nonpayable",
      "type": "function"
    },
    {
      "constant": false,
      "inputs": [
        {
          "name": "_tokenHolder",
          "type": "address"
        },
        {
          "name": "_amount",
          "type": "uint256"
        },
        {
          "name": "_operatorData",
          "type": "bytes"
        }
      ],
      "name": "mint",
      "outputs": [],
      "payable": false,
      "stateMutability": "nonpayable",
      "type": "function"
    },
    {
      "constant": false,
      "inputs": [
        {
          "name": "_tokenHolder",
          "type": "address"
        },
        {
          "name": "_amount",
          "type": "uint256"
        },
        {
          "name": "_userData",
          "type": "bytes"
        },
        {
          "name": "_operatorData",
          "type": "bytes"
        }
      ],
      "name": "burn",
      "outputs": [],
      "payable": false,
      "stateMutability": "nonpayable",
      "type": "function"
    },
    {
      "constant": false,
      "inputs": [],
      "name": "disableERC20",
      "outputs": [],
      "payable": false,
      "stateMutability": "nonpayable",
      "type": "function"
    },
    {
      "constant": false,
      "inputs": [],
      "name": "enableERC20",
      "outputs": [],
      "payable": false,
      "stateMutability": "nonpayable",
      "type": "function"
    },
    {
      "constant": true,
      "inputs": [],
      "name": "decimals",
      "outputs": [
        {
          "name": "",
          "type": "uint8"
        }
      ],
      "payable": false,
      "stateMutability": "view",
      "type": "function"
    },
    {
      "constant": false,
      "inputs": [
        {
          "name": "_to",
          "type": "address"
        },
        {
          "name": "_amount",
          "type": "uint256"
        }
      ],
      "name": "transfer",
      "outputs": [
        {
          "name": "success",
          "type": "bool"
        }
      ],
      "payable": false,
      "stateMutability": "nonpayable",
      "type": "function"
    },
    {
      "constant": false,
      "inputs": [
        {
          "name": "_from",
          "type": "address"
        },
        {
          "name": "_to",
          "type": "address"
        },
        {
          "name": "_amount",
          "type": "uint256"
        }
      ],
      "name": "transferFrom",
      "outputs": [
        {
          "name": "success",
          "type": "bool"
        }
      ],
      "payable": false,
      "stateMutability": "nonpayable",
      "type": "function"
    },
    {
      "constant": false,
      "inputs": [
        {
          "name": "_spender",
          "type": "address"
        },
        {
          "name": "_amount",
          "type": "uint256"
        }
      ],
      "name": "approve",
      "outputs": [
        {
          "name": "success",
          "type": "bool"
        }
      ],
      "payable": false,
      "stateMutability": "nonpayable",
      "type": "function"
    },
    {
      "constant": true,
      "inputs": [
        {
          "name": "_owner",
          "type": "address"
        },
        {
          "name": "_spender",
          "type": "address"
        }
      ],
      "name": "allowance",
      "outputs": [
        {
          "name": "remaining",
          "type": "uint256"
        }
      ],
      "payable": false,
      "stateMutability": "view",
      "type": "function"
    }
  ],
  "bytecode": "0x608060405260018054600160a060020a03191673991a1bcb077599290d7305493c9a630c20f8b7981790553480156200003757600080fd5b5060405162001c9938038062001c9983398101604090815281516020808401519284015160008054600160a060020a031916331790559184018051909493909301926200008b916002919086019062000257565b508151620000a190600390602085019062000257565b5060006005556006805460ff19166001908117909155811015620000c457600080fd5b600481905560408051808201909152600a81527f4552433230546f6b656e00000000000000000000000000000000000000000000602082015262000112903064010000000062000164810204565b60408051808201909152600b81527f455243373737546f6b656e00000000000000000000000000000000000000000060208201526200015b903064010000000062000164810204565b505050620002fc565b6000826040518082805190602001908083835b60208310620001985780518252601f19909201916020918201910162000177565b5181516020939093036101000a6000190180199091169216919091179052604080519190930181900381206001547f29965a1d00000000000000000000000000000000000000000000000000000000835230600484015260248301829052600160a060020a03898116604485015294519197509390931694506329965a1d9350606480820193600093509182900301818387803b1580156200023957600080fd5b505af11580156200024e573d6000803e3d6000fd5b50505050505050565b828054600181600116156101000203166002900490600052602060002090601f016020900481019282601f106200029a57805160ff1916838001178555620002ca565b82800160010185558215620002ca579182015b82811115620002ca578251825591602001919060010190620002ad565b50620002d8929150620002dc565b5090565b620002f991905b80821115620002d85760008155600101620002e3565b90565b61198d806200030c6000396000f3006080604052600436106101195763ffffffff60e060020a60003504166306fdde03811461011e578063070c87f9146101a8578063095ea7b3146101bf57806318160ddd146101f7578063190a6aa91461021e57806323b872dd146102c5578063313ce567146102ef578063556f0dc71461031a57806362ad1b831461032f57806370a08231146103dc578063715018a6146103fd5780638da5cb5b1461041257806394d008ef14610443578063959b8c3f146104ac57806395d89b41146104cd5780639bd9bbc6146104e2578063a9059cbb1461054b578063d0679d341461056f578063d95b637114610593578063dd62ed3e146105ba578063f2fde38b146105e1578063f922f21614610602578063fad8b32a14610617575b600080fd5b34801561012a57600080fd5b50610133610638565b6040805160208082528351818301528351919283929083019185019080838360005b8381101561016d578181015183820152602001610155565b50505050905090810190601f16801561019a5780820380516001836020036101000a031916815260200191505b509250505060405180910390f35b3480156101b457600080fd5b506101bd6106cb565b005b3480156101cb57600080fd5b506101e3600160a060020a036004351660243561072f565b604080519115158252519081900360200190f35b34801561020357600080fd5b5061020c6107ab565b60408051918252519081900360200190f35b34801561022a57600080fd5b50604080516020600460443581810135601f81018490048402850184019095528484526101bd948235600160a060020a031694602480359536959460649492019190819084018382808284375050604080516020601f89358b018035918201839004830284018301909452808352979a9998810197919650918201945092508291508401838280828437509497506107b19650505050505050565b3480156102d157600080fd5b506101e3600160a060020a03600435811690602435166044356109bf565b3480156102fb57600080fd5b50610304610a90565b6040805160ff9092168252519081900360200190f35b34801561032657600080fd5b5061020c610aaa565b34801561033b57600080fd5b50604080516020601f6064356004818101359283018490048402850184019095528184526101bd94600160a060020a03813581169560248035909216956044359536956084940191819084018382808284375050604080516020601f89358b018035918201839004830284018301909452808352979a999881019791965091820194509250829150840183828082843750949750610ab09650505050505050565b3480156103e857600080fd5b5061020c600160a060020a0360043516610adc565b34801561040957600080fd5b506101bd610af7565b34801561041e57600080fd5b50610427610b63565b60408051600160a060020a039092168252519081900360200190f35b34801561044f57600080fd5b50604080516020600460443581810135601f81018490048402850184019095528484526101bd948235600160a060020a0316946024803595369594606494920191908190840183828082843750949750610b729650505050505050565b3480156104b857600080fd5b506101bd600160a060020a0360043516610d22565b3480156104d957600080fd5b50610133610d91565b3480156104ee57600080fd5b50604080516020600460443581810135601f81018490048402850184019095528484526101bd948235600160a060020a0316946024803595369594606494920191908190840183828082843750949750610df29650505050505050565b34801561055757600080fd5b506101e3600160a060020a0360043516602435610e12565b34801561057b57600080fd5b506101bd600160a060020a0360043516602435610e5f565b34801561059f57600080fd5b506101e3600160a060020a0360043581169060243516610e93565b3480156105c657600080fd5b5061020c600160a060020a0360043581169060243516610ee1565b3480156105ed57600080fd5b506101bd600160a060020a0360043516610f21565b34801561060e57600080fd5b506101bd610f44565b34801561062357600080fd5b506101bd600160a060020a0360043516610fa4565b60028054604080516020601f60001961010060018716150201909416859004938401819004810282018101909252828152606093909290918301828280156106c15780601f10610696576101008083540402835291602001916106c1565b820191906000526020600020905b8154815290600101906020018083116106a457829003601f168201915b5050505050905090565b600054600160a060020a031633146106e257600080fd5b6006805460ff1916600117905560408051808201909152600a81527f4552433230546f6b656e00000000000000000000000000000000000000000000602082015261072d9030611010565b565b60065460009060ff16151561074357600080fd5b336000818152600960209081526040808320600160a060020a03881680855290835292819020869055805186815290519293927f8c5be1e5ebec7d5bd14f71427d1e84f3dd0314c0f7b2291e5b200ac8c7c3b925929181900390910190a35060015b92915050565b60055490565b600054600160a060020a031633146107c857600080fd5b6107d1836110ff565b6107e03385600086868661112e565b826107ea85610adc565b10156107f557600080fd5b600160a060020a03841660009081526007602052604090205461081e908463ffffffff61130916565b600160a060020a03851660009081526007602052604090205560055461084a908463ffffffff61130916565b60058190555083600160a060020a031633600160a060020a03167fa78a9be3a7b862d26933ad85fb11d80ef66b8f972d7cbba06621d583943a4098858585604051808481526020018060200180602001838103835285818151815260200191508051906020019080838360005b838110156108cf5781810151838201526020016108b7565b50505050905090810190601f1680156108fc5780820380516001836020036101000a031916815260200191505b50838103825284518152845160209182019186019080838360005b8381101561092f578181015183820152602001610917565b50505050905090810190601f16801561095c5780820380516001836020036101000a031916815260200191505b509550505050505060405180910390a360065460ff16156109b957604080518481529051600091600160a060020a038716917fddf252ad1be2c89b69c2b068fc378daa952ba7f163c4a11628f55a4df523b3ef9181900360200190a35b50505050565b60065460009060ff1615156109d357600080fd5b600160a060020a0384166000908152600960209081526040808320338452909152902054821115610a0357600080fd5b600160a060020a0384166000908152600960209081526040808320338452909152902054610a37908363ffffffff61130916565b600160a060020a03851660009081526009602090815260408083203380855290835281842094909455805180830182528381528151928301909152828252610a8693889388938893929161131b565b5060019392505050565b60065460009060ff161515610aa457600080fd5b50601290565b60045490565b610aba3386610e93565b1515610ac557600080fd5b610ad5858585853386600161131b565b5050505050565b600160a060020a031660009081526007602052604090205490565b600054600160a060020a03163314610b0e57600080fd5b60008054604051600160a060020a03909116917ff8df31144d9c2f0f6b59d69b8b98abd5459d07f2742c4df920b25aae33c6482091a26000805473ffffffffffffffffffffffffffffffffffffffff19169055565b600054600160a060020a031681565b600054600160a060020a03163314610b8957600080fd5b610b92826110ff565b600554610ba5908363ffffffff61157716565b600555600160a060020a038316600090815260076020526040902054610bd1908363ffffffff61157716565b6007600085600160a060020a0316600160a060020a0316815260200190815260200160002081905550610c1b33600085856020604051908101604052806000815250866001611584565b82600160a060020a031633600160a060020a03167fbcd28e05e57d4bcd5bfcc92a4661d412893e6112c44a2e25d96cfdfc30d5f22e84846040518083815260200180602001828103825283818151815260200191508051906020019080838360005b83811015610c95578181015183820152602001610c7d565b50505050905090810190601f168015610cc25780820380516001836020036101000a031916815260200191505b50935050505060405180910390a360065460ff1615610d1d57604080518381529051600160a060020a038516916000917fddf252ad1be2c89b69c2b068fc378daa952ba7f163c4a11628f55a4df523b3ef9181900360200190a35b505050565b600160a060020a038116331415610d3857600080fd5b600160a060020a0381166000818152600860209081526040808320338085529252808320805460ff19166001179055519092917ff4caeb2d6ca8932a215a353d0703c326ec2d81fc68170f320eb2ab49e9df61f991a350565b60038054604080516020601f60026000196101006001881615020190951694909404938401819004810282018101909252828152606093909290918301828280156106c15780601f10610696576101008083540402835291602001916106c1565b610d1d33848484336020604051908101604052806000815250600161131b565b60065460009060ff161515610e2657600080fd5b610e563384846020604051908101604052806000815250336020604051908101604052806000815250600061131b565b50600192915050565b610e8f3383836020604051908101604052806000815250336020604051908101604052806000815250600161131b565b5050565b600081600160a060020a031683600160a060020a03161480610eda5750600160a060020a0380841660009081526008602090815260408083209386168352929052205460ff165b9392505050565b60065460009060ff161515610ef557600080fd5b50600160a060020a03918216600090815260096020908152604080832093909416825291909152205490565b600054600160a060020a03163314610f3857600080fd5b610f418161177e565b50565b600054600160a060020a03163314610f5b57600080fd5b6006805460ff1916905560408051808201909152600a81527f4552433230546f6b656e00000000000000000000000000000000000000000000602082015261072d906000611010565b600160a060020a038116331415610fba57600080fd5b600160a060020a0381166000818152600860209081526040808320338085529252808320805460ff19169055519092917f50546e66e5f44d728365dc3908c63bc5cfeeab470722c1677e3073a6ac294aa191a350565b6000826040518082805190602001908083835b602083106110425780518252601f199092019160209182019101611023565b5181516020939093036101000a6000190180199091169216919091179052604080519190930181900381206001547f29965a1d00000000000000000000000000000000000000000000000000000000835230600484015260248301829052600160a060020a03898116604485015294519197509390931694506329965a1d9350606480820193600093509182900301818387803b1580156110e257600080fd5b505af11580156110f6573d6000803e3d6000fd5b50505050505050565b600454819061112490611118838263ffffffff6117fb16565b9063ffffffff61181016565b14610f4157600080fd5b600061116f866040805190810160405280601281526020017f455243373737546f6b656e7353656e6465720000000000000000000000000000815250611839565b9050600160a060020a038116156110f65780600160a060020a03166375ab97828888888888886040518763ffffffff1660e060020a0281526004018087600160a060020a0316600160a060020a0316815260200186600160a060020a0316600160a060020a0316815260200185600160a060020a0316600160a060020a031681526020018481526020018060200180602001838103835285818151815260200191508051906020019080838360005b8381101561123657818101518382015260200161121e565b50505050905090810190601f1680156112635780820380516001836020036101000a031916815260200191505b50838103825284518152845160209182019186019080838360005b8381101561129657818101518382015260200161127e565b50505050905090810190601f1680156112c35780820380516001836020036101000a031916815260200191505b5098505050505050505050600060405180830381600087803b1580156112e857600080fd5b505af11580156112fc573d6000803e3d6000fd5b5050505050505050505050565b60008282111561131557fe5b50900390565b611324856110ff565b61133283888888888761112e565b600160a060020a038616151561134757600080fd5b600160a060020a03871660009081526007602052604090205485111561136c57600080fd5b600160a060020a038716600090815260076020526040902054611395908663ffffffff61130916565b600160a060020a0380891660009081526007602052604080822093909355908816815220546113ca908663ffffffff61157716565b600160a060020a0387166000908152600760205260409020556113f283888888888787611584565b85600160a060020a031687600160a060020a031684600160a060020a03167f06b541ddaa720db2b10a4d0cdac39b8d360425fc073085fac19bc82614677987888887604051808481526020018060200180602001838103835285818151815260200191508051906020019080838360005b8381101561147b578181015183820152602001611463565b50505050905090810190601f1680156114a85780820380516001836020036101000a031916815260200191505b50838103825284518152845160209182019186019080838360005b838110156114db5781810151838201526020016114c3565b50505050905090810190601f1680156115085780820380516001836020036101000a031916815260200191505b509550505050505060405180910390a460065460ff16156110f65785600160a060020a031687600160a060020a03167fddf252ad1be2c89b69c2b068fc378daa952ba7f163c4a11628f55a4df523b3ef876040518082815260200191505060405180910390a350505050505050565b818101828110156107a557fe5b60006115c5866040805190810160405280601581526020017f455243373737546f6b656e73526563697069656e740000000000000000000000815250611839565b9050600160a060020a0381161561175a5780600160a060020a03166223de298989898989896040518763ffffffff1660e060020a0281526004018087600160a060020a0316600160a060020a0316815260200186600160a060020a0316600160a060020a0316815260200185600160a060020a0316600160a060020a031681526020018481526020018060200180602001838103835285818151815260200191508051906020019080838360005b8381101561168b578181015183820152602001611673565b50505050905090810190601f1680156116b85780820380516001836020036101000a031916815260200191505b50838103825284518152845160209182019186019080838360005b838110156116eb5781810151838201526020016116d3565b50505050905090810190601f1680156117185780820380516001836020036101000a031916815260200191505b5098505050505050505050600060405180830381600087803b15801561173d57600080fd5b505af1158015611751573d6000803e3d6000fd5b50505050611774565b81156117745761176986611937565b151561177457600080fd5b5050505050505050565b600160a060020a038116151561179357600080fd5b60008054604051600160a060020a03808516939216917f8be0079c531659141344cd1fd0a4f28419497f9722a3daafe3b4186f6b6457e091a36000805473ffffffffffffffffffffffffffffffffffffffff1916600160a060020a0392909216919091179055565b6000818381151561180857fe5b049392505050565b6000821515611821575060006107a5565b5081810281838281151561183157fe5b04146107a557fe5b600080826040518082805190602001908083835b6020831061186c5780518252601f19909201916020918201910161184d565b51815160209384036101000a6000190180199092169116179052604080519290940182900382206001547faabbb8ca000000000000000000000000000000000000000000000000000000008452600160a060020a038c8116600486015260248501839052955191985094909416955063aabbb8ca945060448083019491935090918290030181600087803b15801561190357600080fd5b505af1158015611917573d6000803e3d6000fd5b505050506040513d602081101561192d57600080fd5b5051949350505050565b600080600160a060020a0383161515611953576000915061195b565b5050803b8015905b509190505600a165627a7a72305820c671a4456b513544208153fee83441ec87972756fb7f0f338d78f5d34ce869970029",
  "source": "/* This Source Code Form is subject to the terms of the Mozilla Public\n * License, v. 2.0. If a copy of the MPL was not distributed with this\n * file, You can obtain one at http://mozilla.org/MPL/2.0/. */\npragma solidity 0.4.24;\n\nimport \"../eip820/ERC820Implementer.sol\";\nimport \"../../node_modules/openzeppelin-solidity/contracts/ownership/Ownable.sol\";\nimport \"../../node_modules/openzeppelin-solidity/contracts/math/SafeMath.sol\";\nimport \"./ERC777Token.sol\";\nimport \"./ERC777TokensSender.sol\";\nimport \"./ERC777TokensRecipient.sol\";\nimport \"../eip20/ERC20Token.sol\";\n\n\ncontract Basic777 is Ownable, ERC20Token, ERC777Token, ERC820Implementer {\n    using SafeMath for uint256;\n\n    string private mName;\n    string private mSymbol;\n    uint256 private mGranularity;\n    uint256 private mTotalSupply;\n\n    bool private mErc20compatible;\n\n    mapping(address => uint) private mBalances;\n    mapping(address => mapping(address => bool)) private mAuthorized;\n    mapping(address => mapping(address => uint256)) private mAllowed;\n\n    /* -- Constructor -- */\n    //\n    /// @notice Constructor to create a ReferenceToken\n    /// @param _name Name of the new token\n    /// @param _symbol Symbol of the new token.\n    /// @param _granularity Minimum transferable chunk.\n    constructor(\n        string _name,\n        string _symbol,\n        uint256 _granularity\n    )\n        public\n    {\n        mName = _name;\n        mSymbol = _symbol;\n        mTotalSupply = 0;\n        mErc20compatible = true;\n        require(_granularity >= 1);\n        mGranularity = _granularity;\n\n        setInterfaceImplementation(\"ERC20Token\", this);\n        setInterfaceImplementation(\"ERC777Token\", this);\n    }\n\n    /* -- ERC777 Interface Implementation -- */\n    //\n    /// @return the name of the token\n    function name() public constant returns (string) { return mName; }\n\n    /// @return the symbol of the token\n    function symbol() public constant returns (string) { return mSymbol; }\n\n    /// @return the granularity of the token\n    function granularity() public constant returns (uint256) { return mGranularity; }\n\n    /// @return the total supply of the token\n    function totalSupply() public constant returns (uint256) { return mTotalSupply; }\n\n    /// @notice Return the account balance of some account\n    /// @param _tokenHolder Address for which the balance is returned\n    /// @return the balance of `_tokenAddress`.\n    function balanceOf(address _tokenHolder) public constant returns (uint256) { return mBalances[_tokenHolder]; }\n\n    /// @notice Send `_amount` of tokens to address `_to`\n    /// @param _to The address of the recipient\n    /// @param _amount The number of tokens to be sent\n    function send(address _to, uint256 _amount) public {\n        doSend(msg.sender, _to, _amount, \"\", msg.sender, \"\", true);\n    }\n\n    /// @notice Send `_amount` of tokens to address `_to` passing `_userData` to the recipient\n    /// @param _to The address of the recipient\n    /// @param _amount The number of tokens to be sent\n    function send(address _to, uint256 _amount, bytes _userData) public {\n        doSend(msg.sender, _to, _amount, _userData, msg.sender, \"\", true);\n    }\n\n    /// @notice Authorize a third party `_operator` to manage (send) `msg.sender`'s tokens.\n    /// @param _operator The operator that wants to be Authorized\n    function authorizeOperator(address _operator) public {\n        require(_operator != msg.sender);\n        mAuthorized[_operator][msg.sender] = true;\n        AuthorizedOperator(_operator, msg.sender);\n    }\n\n    /// @notice Revoke a third party `_operator`'s rights to manage (send) `msg.sender`'s tokens.\n    /// @param _operator The operator that wants to be Revoked\n    function revokeOperator(address _operator) public {\n        require(_operator != msg.sender);\n        mAuthorized[_operator][msg.sender] = false;\n        RevokedOperator(_operator, msg.sender);\n    }\n\n    /// @notice Check whether the `_operator` address is allowed to manage the tokens held by `_tokenHolder` address.\n    /// @param _operator address to check if it has the right to manage the tokens\n    /// @param _tokenHolder address which holds the tokens to be managed\n    /// @return `true` if `_operator` is authorized for `_tokenHolder`\n    function isOperatorFor(address _operator, address _tokenHolder) public constant returns (bool) {\n        return _operator == _tokenHolder || mAuthorized[_operator][_tokenHolder];\n    }\n\n    /// @notice Send `_amount` of tokens on behalf of the address `from` to the address `to`.\n    /// @param _from The address holding the tokens being sent\n    /// @param _to The address of the recipient\n    /// @param _amount The number of tokens to be sent\n    /// @param _userData Data generated by the user to be sent to the recipient\n    /// @param _operatorData Data generated by the operator to be sent to the recipient\n    function operatorSend(address _from, address _to, uint256 _amount, bytes _userData, bytes _operatorData) public {\n        require(isOperatorFor(msg.sender, _from));\n        doSend(_from, _to, _amount, _userData, msg.sender, _operatorData, true);\n    }\n\n    /* -- Mint And Burn Functions (not part of the ERC777 standard, only the Events/tokensReceived are) -- */\n    //\n    /// @notice Generates `_amount` tokens to be assigned to `_tokenHolder`\n    ///  Sample mint function to showcase the use of the `Minted` event and the logic to notify the recipient.\n    /// @param _tokenHolder The address that will be assigned the new tokens\n    /// @param _amount The quantity of tokens generated\n    /// @param _operatorData Data that will be passed to the recipient as a first transfer\n    function mint(address _tokenHolder, uint256 _amount, bytes _operatorData) public onlyOwner {\n        requireMultiple(_amount);\n        mTotalSupply = mTotalSupply.add(_amount);\n        mBalances[_tokenHolder] = mBalances[_tokenHolder].add(_amount);\n\n        callRecipient(msg.sender, 0x0, _tokenHolder, _amount, \"\", _operatorData, true);\n\n        Minted(msg.sender, _tokenHolder, _amount, _operatorData);\n        if (mErc20compatible) { Transfer(0x0, _tokenHolder, _amount); }\n    }\n\n    /// @notice Burns `_amount` tokens from `_tokenHolder`\n    ///  Sample burn function to showcase the use of the `Burned` event.\n    /// @param _tokenHolder The address that will lose the tokens\n    /// @param _amount The quantity of tokens to burn\n    function burn(address _tokenHolder, uint256 _amount, bytes _userData, bytes _operatorData) public onlyOwner {\n        requireMultiple(_amount);\n\n        callSender(msg.sender, _tokenHolder, 0x0, _amount, _userData, _operatorData);\n\n        require(balanceOf(_tokenHolder) >= _amount);\n\n        mBalances[_tokenHolder] = mBalances[_tokenHolder].sub(_amount);\n        mTotalSupply = mTotalSupply.sub(_amount);\n\n        Burned(msg.sender, _tokenHolder, _amount, _userData, _operatorData);\n        if (mErc20compatible) { Transfer(_tokenHolder, 0x0, _amount); }\n    }\n\n    /* -- ERC20 Compatible Methods -- */\n    //\n    /// @notice This modifier is applied to erc20 obsolete methods that are\n    ///  implemented only to maintain backwards compatibility. When the erc20\n    ///  compatibility is disabled, this methods will fail.\n    modifier erc20 () {\n        require(mErc20compatible);\n        _;\n    }\n\n    /// @notice Disables the ERC20 interface. This function can only be called\n    ///  by the owner.\n    function disableERC20() public onlyOwner {\n        mErc20compatible = false;\n        setInterfaceImplementation(\"ERC20Token\", 0x0);\n    }\n\n    /// @notice Re enables the ERC20 interface. This function can only be called\n    ///  by the owner.\n    function enableERC20() public onlyOwner {\n        mErc20compatible = true;\n        setInterfaceImplementation(\"ERC20Token\", this);\n    }\n\n    /// @notice For Backwards compatibility\n    /// @return The decimls of the token. Forced to 18 in ERC777.\n    function decimals() public erc20 constant returns (uint8) { return uint8(18); }\n\n    /// @notice ERC20 backwards compatible transfer.\n    /// @param _to The address of the recipient\n    /// @param _amount The number of tokens to be transferred\n    /// @return `true`, if the transfer can't be done, it should fail.\n    function transfer(address _to, uint256 _amount) public erc20 returns (bool success) {\n        doSend(msg.sender, _to, _amount, \"\", msg.sender, \"\", false);\n        return true;\n    }\n\n    /// @notice ERC20 backwards compatible transferFrom.\n    /// @param _from The address holding the tokens being transferred\n    /// @param _to The address of the recipient\n    /// @param _amount The number of tokens to be transferred\n    /// @return `true`, if the transfer can't be done, it should fail.\n    function transferFrom(address _from, address _to, uint256 _amount) public erc20 returns (bool success) {\n        require(_amount <= mAllowed[_from][msg.sender]);\n\n        // Cannot be after doSend because of tokensReceived re-entry\n        mAllowed[_from][msg.sender] = mAllowed[_from][msg.sender].sub(_amount);\n        doSend(_from, _to, _amount, \"\", msg.sender, \"\", false);\n        return true;\n    }\n\n    /// @notice ERC20 backwards compatible approve.\n    ///  `msg.sender` approves `_spender` to spend `_amount` tokens on its behalf.\n    /// @param _spender The address of the account able to transfer the tokens\n    /// @param _amount The number of tokens to be approved for transfer\n    /// @return `true`, if the approve can't be done, it should fail.\n    function approve(address _spender, uint256 _amount) public erc20 returns (bool success) {\n        mAllowed[msg.sender][_spender] = _amount;\n        Approval(msg.sender, _spender, _amount);\n        return true;\n    }\n\n    /// @notice ERC20 backwards compatible allowance.\n    ///  This function makes it easy to read the `allowed[]` map\n    /// @param _owner The address of the account that owns the token\n    /// @param _spender The address of the account able to transfer the tokens\n    /// @return Amount of remaining tokens of _owner that _spender is allowed\n    ///  to spend\n    function allowance(address _owner, address _spender) public erc20 constant returns (uint256 remaining) {\n        return mAllowed[_owner][_spender];\n    }\n\n    /* -- Helper Functions -- */\n    //\n    /// @notice Internal function that ensures `_amount` is multiple of the granularity\n    /// @param _amount The quantity that want's to be checked\n    function requireMultiple(uint256 _amount) internal view {\n        require(_amount.div(mGranularity).mul(mGranularity) == _amount);\n    }\n\n    /// @notice Check whether an address is a regular address or not.\n    /// @param _addr Address of the contract that has to be checked\n    /// @return `true` if `_addr` is a regular address (not a contract)\n    function isRegularAddress(address _addr) internal constant returns(bool) {\n        if (_addr == 0) { return false; }\n        uint size;\n        assembly { size := extcodesize(_addr) } // solhint-disable-line no-inline-assembly\n        return size == 0;\n    }\n\n    /// @notice Helper function actually performing the sending of tokens.\n    /// @param _from The address holding the tokens being sent\n    /// @param _to The address of the recipient\n    /// @param _amount The number of tokens to be sent\n    /// @param _userData Data generated by the user to be passed to the recipient\n    /// @param _operatorData Data generated by the operator to be passed to the recipient\n    /// @param _preventLocking `true` if you want this function to throw when tokens are sent to a contract not\n    ///  implementing `erc777_tokenHolder`.\n    ///  ERC777 native Send functions MUST set this parameter to `true`, and backwards compatible ERC20 transfer\n    ///  functions SHOULD set this parameter to `false`.\n    function doSend(\n        address _from,\n        address _to,\n        uint256 _amount,\n        bytes _userData,\n        address _operator,\n        bytes _operatorData,\n        bool _preventLocking\n    )\n        private\n    {\n        requireMultiple(_amount);\n\n        callSender(_operator, _from, _to, _amount, _userData, _operatorData);\n\n        require(_to != address(0));          // forbid sending to 0x0 (=burning)\n        require(mBalances[_from] >= _amount); // ensure enough funds\n\n        mBalances[_from] = mBalances[_from].sub(_amount);\n        mBalances[_to] = mBalances[_to].add(_amount);\n\n        callRecipient(_operator, _from, _to, _amount, _userData, _operatorData, _preventLocking);\n\n        Sent(_operator, _from, _to, _amount, _userData, _operatorData);\n        if (mErc20compatible) { Transfer(_from, _to, _amount); }\n    }\n\n    /// @notice Helper function that checks for ERC777TokensRecipient on the recipient and calls it.\n    ///  May throw according to `_preventLocking`\n    /// @param _from The address holding the tokens being sent\n    /// @param _to The address of the recipient\n    /// @param _amount The number of tokens to be sent\n    /// @param _userData Data generated by the user to be passed to the recipient\n    /// @param _operatorData Data generated by the operator to be passed to the recipient\n    /// @param _preventLocking `true` if you want this function to throw when tokens are sent to a contract not\n    ///  implementing `ERC777TokensRecipient`.\n    ///  ERC777 native Send functions MUST set this parameter to `true`, and backwards compatible ERC20 transfer\n    ///  functions SHOULD set this parameter to `false`.\n    function callRecipient(\n        address _operator,\n        address _from,\n        address _to,\n        uint256 _amount,\n        bytes _userData,\n        bytes _operatorData,\n        bool _preventLocking\n    ) private {\n        address recipientImplementation = interfaceAddr(_to, \"ERC777TokensRecipient\");\n        if (recipientImplementation != 0) {\n            ERC777TokensRecipient(recipientImplementation).tokensReceived(\n                _operator, _from, _to, _amount, _userData, _operatorData);\n        } else if (_preventLocking) {\n            require(isRegularAddress(_to));\n        }\n    }\n\n    /// @notice Helper function that checks for ERC777TokensSender on the sender and calls it.\n    ///  May throw according to `_preventLocking`\n    /// @param _from The address holding the tokens being sent\n    /// @param _to The address of the recipient\n    /// @param _amount The amount of tokens to be sent\n    /// @param _userData Data generated by the user to be passed to the recipient\n    /// @param _operatorData Data generated by the operator to be passed to the recipient\n    ///  implementing `ERC777TokensSender`.\n    ///  ERC777 native Send functions MUST set this parameter to `true`, and backwards compatible ERC20 transfer\n    ///  functions SHOULD set this parameter to `false`.\n    function callSender(\n        address _operator,\n        address _from,\n        address _to,\n        uint256 _amount,\n        bytes _userData,\n        bytes _operatorData\n    ) private {\n        address senderImplementation = interfaceAddr(_from, \"ERC777TokensSender\");\n        if (senderImplementation != 0) {\n            ERC777TokensSender(senderImplementation).tokensToSend(\n                _operator, _from, _to, _amount, _userData, _operatorData);\n        }\n    }\n}",
  "sourcePath": "/home/ubuntu/dev/kpx/contracts/eip777/Basic777.sol",
  "compiler": {
    "name": "solc",
    "version": "0.4.24+commit.e67f0147.Emscripten.clang"
  },
  "schemaVersion": "2.0.1",
  "updatedAt": "2018-07-18T18:00:40.732Z"
}