{
  "contractName": "ERC820Registry",
  "abi": [
    {
      "anonymous": false,
      "inputs": [
        {
          "indexed": true,
          "name": "addr",
          "type": "address"
        },
        {
          "indexed": true,
          "name": "interfaceHash",
          "type": "bytes32"
        },
        {
          "indexed": true,
          "name": "implementer",
          "type": "address"
        }
      ],
      "name": "InterfaceImplementerSet",
      "type": "event"
    },
    {
      "anonymous": false,
      "inputs": [
        {
          "indexed": true,
          "name": "addr",
          "type": "address"
        },
        {
          "indexed": true,
          "name": "newManager",
          "type": "address"
        }
      ],
      "name": "ManagerChanged",
      "type": "event"
    },
    {
      "constant": true,
      "inputs": [
        {
          "name": "interfaceName",
          "type": "string"
        }
      ],
      "name": "interfaceHash",
      "outputs": [
        {
          "name": "",
          "type": "bytes32"
        }
      ],
      "payable": false,
      "stateMutability": "pure",
      "type": "function"
    },
    {
      "constant": true,
      "inputs": [
        {
          "name": "addr",
          "type": "address"
        }
      ],
      "name": "getManager",
      "outputs": [
        {
          "name": "",
          "type": "address"
        }
      ],
      "payable": false,
      "stateMutability": "view",
      "type": "function"
    },
    {
      "constant": false,
      "inputs": [
        {
          "name": "addr",
          "type": "address"
        },
        {
          "name": "newManager",
          "type": "address"
        }
      ],
      "name": "setManager",
      "outputs": [],
      "payable": false,
      "stateMutability": "nonpayable",
      "type": "function"
    },
    {
      "constant": true,
      "inputs": [
        {
          "name": "addr",
          "type": "address"
        },
        {
          "name": "iHash",
          "type": "bytes32"
        }
      ],
      "name": "getInterfaceImplementer",
      "outputs": [
        {
          "name": "",
          "type": "address"
        }
      ],
      "payable": false,
      "stateMutability": "view",
      "type": "function"
    },
    {
      "constant": false,
      "inputs": [
        {
          "name": "addr",
          "type": "address"
        },
        {
          "name": "iHash",
          "type": "bytes32"
        },
        {
          "name": "implementer",
          "type": "address"
        }
      ],
      "name": "setInterfaceImplementer",
      "outputs": [],
      "payable": false,
      "stateMutability": "nonpayable",
      "type": "function"
    },
    {
      "constant": true,
      "inputs": [
        {
          "name": "_contract",
          "type": "address"
        },
        {
          "name": "_interfaceId",
          "type": "bytes4"
        }
      ],
      "name": "erc165InterfaceSupported",
      "outputs": [
        {
          "name": "",
          "type": "bool"
        }
      ],
      "payable": false,
      "stateMutability": "view",
      "type": "function"
    },
    {
      "constant": false,
      "inputs": [
        {
          "name": "_contract",
          "type": "address"
        },
        {
          "name": "_interfaceId",
          "type": "bytes4"
        }
      ],
      "name": "erc165UpdateCache",
      "outputs": [],
      "payable": false,
      "stateMutability": "nonpayable",
      "type": "function"
    },
    {
      "constant": true,
      "inputs": [
        {
          "name": "_contract",
          "type": "address"
        },
        {
          "name": "_interfaceId",
          "type": "bytes4"
        }
      ],
      "name": "erc165InterfaceSupported_NoCache",
      "outputs": [
        {
          "name": "",
          "type": "bool"
        }
      ],
      "payable": false,
      "stateMutability": "view",
      "type": "function"
    }
  ],
  "bytecode": "0x608060405234801561001057600080fd5b506107f7806100206000396000f30060806040526004361061008d5763ffffffff7c010000000000000000000000000000000000000000000000000000000060003504166329965a1d81146100925780633d584063146100bf578063571a1f66146100fc5780635df8122f1461012a57806365ba36c11461015157806390e47957146101bc578063aabbb8ca146101fe578063ddc23ddd14610222575b600080fd5b34801561009e57600080fd5b506100bd600160a060020a036004358116906024359060443516610250565b005b3480156100cb57600080fd5b506100e0600160a060020a03600435166103e8565b60408051600160a060020a039092168252519081900360200190f35b34801561010857600080fd5b506100bd600160a060020a0360043516600160e060020a031960243516610434565b34801561013657600080fd5b506100bd600160a060020a03600435811690602435166104be565b34801561015d57600080fd5b506040805160206004803580820135601f81018490048402850184019095528484526101aa94369492936024939284019190819084018382808284375094975061056c9650505050505050565b60408051918252519081900360200190f35b3480156101c857600080fd5b506101ea600160a060020a0360043516600160e060020a0319602435166105d0565b604080519115158252519081900360200190f35b34801561020a57600080fd5b506100e0600160a060020a0360043516602435610646565b34801561022e57600080fd5b506101ea600160a060020a0360043516600160e060020a0319602435166106a5565b823361025b826103e8565b600160a060020a03161461026e57600080fd5b6102778361075c565b1561028157600080fd5b600160a060020a038216158015906102a25750600160a060020a0382163314155b1561037757604080517f4552433832305f4143434550545f4d4147494300000000000000000000000000815281519081900360130181207ff0083250000000000000000000000000000000000000000000000000000000008252600160a060020a038781166004840152602483018790529251909285169163f00832509160448083019260209291908290030181600087803b15801561034157600080fd5b505af1158015610355573d6000803e3d6000fd5b505050506040513d602081101561036b57600080fd5b50511461037757600080fd5b600160a060020a03848116600081815260208181526040808320888452909152808220805473ffffffffffffffffffffffffffffffffffffffff19169487169485179055518692917f93baa6efbd2244243bfee6ce4cfdd1d04fc4c0e9a786abd3a41313bd352db15391a450505050565b600160a060020a03808216600090815260016020526040812054909116151561041257508061042f565b50600160a060020a03808216600090815260016020526040902054165b919050565b61043e82826106a5565b61044957600061044b565b815b600160a060020a03928316600081815260208181526040808320600160e060020a031996909616808452958252808320805473ffffffffffffffffffffffffffffffffffffffff19169590971694909417909555908152600284528181209281529190925220805460ff19166001179055565b81336104c9826103e8565b600160a060020a0316146104dc57600080fd5b82600160a060020a031682600160a060020a0316146104fb57816104fe565b60005b600160a060020a03848116600081815260016020526040808220805473ffffffffffffffffffffffffffffffffffffffff19169585169590951790945592519185169290917f605c2dbf762e5f7d60a546d42e7205dcb1b011ebc62a61736a57c9089d3a43509190a3505050565b6000816040518082805190602001908083835b6020831061059e5780518252601f19909201916020918201910161057f565b5181516020939093036101000a6000190180199091169216919091179052604051920182900390912095945050505050565b600160a060020a0382166000908152600260209081526040808320600160e060020a03198516845290915281205460ff161515610611576106118383610434565b50600160a060020a03918216600090815260208181526040808320600160e060020a0319949094168352929052205416151590565b6000806106528361075c565b1561067757508161066384826105d0565b61066e576000610670565b835b915061069e565b600160a060020a038085166000908152602081815260408083208784529091529020541691505b5092915050565b600080806106d3857f01ffc9a70000000000000000000000000000000000000000000000000000000061077e565b90925090508115806106e3575080155b156106f15760009250610754565b61070385600160e060020a031961077e565b909250905081158061071457508015155b156107225760009250610754565b61072c858561077e565b90925090506001821480156107415750806001145b1561074f5760019250610754565b600092505b505092915050565b7bffffffffffffffffffffffffffffffffffffffffffffffffffffffff161590565b6040517f01ffc9a7000000000000000000000000000000000000000000000000000000008082526004820183905260009182919060208160088189617530fa9051909690955093505050505600a165627a7a72305820a3372eb9be7ac9f9c0447dc2622bf0c04870f6229f0e2ad5b7412cfe1f6d92040029",
  "source": "pragma solidity 0.4.24;\n\ninterface ERC820ImplementerInterface {\n    /// @notice Contracts that implement an interferce in behalf of another contract must return true\n    /// @param addr Address that the contract woll implement the interface in behalf of\n    /// @param interfaceHash keccak256 of the name of the interface\n    /// @return ERC820_ACCEPT_MAGIC if the contract can implement the interface represented by\n    ///  `ìnterfaceHash` in behalf of `addr`\n    function canImplementInterfaceForAddress(address addr, bytes32 interfaceHash) view public returns(bytes32);\n}\n\ncontract ERC820Registry {\n    bytes4 constant InvalidID = 0xffffffff;\n    bytes4 constant ERC165ID = 0x01ffc9a7;\n    bytes32 constant ERC820_ACCEPT_MAGIC = keccak256(\"ERC820_ACCEPT_MAGIC\");\n\n\n    mapping (address => mapping(bytes32 => address)) interfaces;\n    mapping (address => address) managers;\n    mapping (address => mapping(bytes4 => bool)) erc165Cache;\n\n    modifier canManage(address addr) {\n        require(getManager(addr) == msg.sender);\n        _;\n    }\n\n\n    event InterfaceImplementerSet(address indexed addr, bytes32 indexed interfaceHash, address indexed implementer);\n    event ManagerChanged(address indexed addr, address indexed newManager);\n\n    /// @notice Query the hash of an interface given a name\n    /// @param interfaceName Name of the interfce\n    function interfaceHash(string interfaceName) public pure returns(bytes32) {\n        return keccak256(interfaceName);\n    }\n\n    /// @notice GetManager\n    function getManager(address addr) public view returns(address) {\n        // By default the manager of an address is the same address\n        if (managers[addr] == 0) {\n            return addr;\n        } else {\n            return managers[addr];\n        }\n    }\n\n    /// @notice Sets an external `manager` that will be able to call `setInterfaceImplementer()`\n    ///  on behalf of the address.\n    /// @param addr Address that you are defining the manager for.\n    /// @param newManager The address of the manager for the `addr` that will replace\n    ///  the old one.  Set to 0x0 if you want to remove the manager.\n    function setManager(address addr, address newManager) public canManage(addr) {\n        managers[addr] = newManager == addr ? 0 : newManager;\n        ManagerChanged(addr, newManager);\n    }\n\n    /// @notice Query if an address implements an interface and thru which contract\n    /// @param addr Address that is being queried for the implementation of an interface\n    /// @param iHash SHA3 of the name of the interface as a string\n    ///  Example `web3.utils.sha3('ERC777Token`')`\n    /// @return The address of the contract that implements a specific interface\n    ///  or 0x0 if `addr` does not implement this interface\n    function getInterfaceImplementer(address addr, bytes32 iHash) constant public returns (address) {\n        if (isERC165Interface(iHash)) {\n            bytes4 i165Hash = bytes4(iHash);\n            return erc165InterfaceSupported(addr, i165Hash) ? addr : 0;\n        }\n        return interfaces[addr][iHash];\n    }\n\n    /// @notice Sets the contract that will handle a specific interface; only\n    ///  the address itself or a `manager` defined for that address can set it\n    /// @param addr Address that you want to define the interface for\n    /// @param iHash SHA3 of the name of the interface as a string\n    ///  For example `web3.utils.sha3('Ierc777')` for the Ierc777\n    function setInterfaceImplementer(address addr, bytes32 iHash, address implementer) public canManage(addr)  {\n        require(!isERC165Interface(iHash));\n        if ((implementer != 0) && (implementer!=msg.sender)) {\n            require(ERC820ImplementerInterface(implementer).canImplementInterfaceForAddress(addr, iHash)\n                        == ERC820_ACCEPT_MAGIC);\n        }\n        interfaces[addr][iHash] = implementer;\n        InterfaceImplementerSet(addr, iHash, implementer);\n    }\n\n\n/// ERC165 Specific\n\n    function isERC165Interface(bytes32 iHash) internal pure returns (bool) {\n        return iHash & 0x00000000FFFFFFFFFFFFFFFFFFFFFFFFFFFFFFFFFFFFFFFFFFFFFFFFFFFFFFFF == 0;\n    }\n\n    function erc165InterfaceSupported(address _contract, bytes4 _interfaceId) constant public returns (bool) {\n        if (!erc165Cache[_contract][_interfaceId]) {\n            erc165UpdateCache(_contract, _interfaceId);\n        }\n        return interfaces[_contract][_interfaceId] != 0;\n    }\n\n    function erc165UpdateCache(address _contract, bytes4 _interfaceId) public {\n        interfaces[_contract][_interfaceId] =\n            erc165InterfaceSupported_NoCache(_contract, _interfaceId) ? _contract : 0;\n        erc165Cache[_contract][_interfaceId] = true;\n    }\n\n    function erc165InterfaceSupported_NoCache(address _contract, bytes4 _interfaceId) public constant returns (bool) {\n        uint256 success;\n        uint256 result;\n\n        (success, result) = noThrowCall(_contract, ERC165ID);\n        if ((success==0)||(result==0)) {\n            return false;\n        }\n\n        (success, result) = noThrowCall(_contract, InvalidID);\n        if ((success==0)||(result!=0)) {\n            return false;\n        }\n\n        (success, result) = noThrowCall(_contract, _interfaceId);\n        if ((success==1)&&(result==1)) {\n            return true;\n        }\n        return false;\n    }\n\n    function noThrowCall(address _contract, bytes4 _interfaceId) constant internal returns (uint256 success, uint256 result) {\n        bytes4 erc165ID = ERC165ID;\n\n        assembly {\n                let x := mload(0x40)               // Find empty storage location using \"free memory pointer\"\n                mstore(x, erc165ID)                // Place signature at begining of empty storage\n                mstore(add(x, 0x04), _interfaceId) // Place first argument directly next to signature\n\n                success := staticcall(\n                                    30000,         // 30k gas\n                                    _contract,     // To addr\n                                    x,             // Inputs are stored at location x\n                                    0x08,          // Inputs are 8 bytes long\n                                    x,             // Store output over input (saves space)\n                                    0x20)          // Outputs are 32 bytes long\n\n                result := mload(x)                 // Load the result\n        }\n    }\n}\n",
  "sourcePath": "/home/ubuntu/dev/kpx/contracts/eip820/ERC820Registry.sol",
  "compiler": {
    "name": "solc",
    "version": "0.4.24+commit.e67f0147.Emscripten.clang"
  },
  "schemaVersion": "2.0.1",
  "updatedAt": "2018-07-18T18:00:40.739Z"
}