{
  "contractName": "ExampleImplementer",
  "abi": [
    {
      "constant": true,
      "inputs": [
        {
          "name": "addr",
          "type": "address"
        },
        {
          "name": "interfaceHash",
          "type": "bytes32"
        }
      ],
      "name": "canImplementInterfaceForAddress",
      "outputs": [
        {
          "name": "",
          "type": "bytes32"
        }
      ],
      "payable": false,
      "stateMutability": "view",
      "type": "function"
    }
  ],
  "bytecode": "0x608060405234801561001057600080fd5b5061011a806100206000396000f300608060405260043610603f576000357c0100000000000000000000000000000000000000000000000000000000900463ffffffff168063f0083250146044575b600080fd5b348015604f57600080fd5b506090600480360381019080803573ffffffffffffffffffffffffffffffffffffffff169060200190929190803560001916906020019092919050505060ae565b60405180826000191660001916815260200191505060405180910390f35b600060405180807f4552433832305f4143434550545f4d4147494300000000000000000000000000815250601301905060405180910390209050929150505600a165627a7a72305820d5ffc4465d2043260acec7fc4f07d5542173c46455c3134b0436f06649be2f600029",
  "source": "pragma solidity ^0.4.24;\n\nimport \"./ERC820ImplementerInterface.sol\";\n\n\ncontract ExampleImplementer is ERC820ImplementerInterface {\n    function canImplementInterfaceForAddress(address addr, bytes32 interfaceHash) view public returns(bytes32) {\n        return ERC820_ACCEPT_MAGIC;\n    }\n}\n",
  "sourcePath": "/home/ubuntu/dev/kpx/contracts/eip820/ExampleImplementer.sol",
  "compiler": {
    "name": "solc",
    "version": "0.4.24+commit.e67f0147.Emscripten.clang"
  },
  "schemaVersion": "2.0.1",
  "updatedAt": "2018-07-30T08:47:46.546Z"
}