{
  "contractName": "ExampleImplementer",
  "abi": [
    {
      "constant": true,
      "inputs": [
        {
          "name": "addr",
          "type": "address"
        },
        {
          "name": "interfaceHash",
          "type": "bytes32"
        }
      ],
      "name": "canImplementInterfaceForAddress",
      "outputs": [
        {
          "name": "",
          "type": "bytes32"
        }
      ],
      "payable": false,
      "stateMutability": "view",
      "type": "function"
    }
  ],
  "bytecode": "0x608060405234801561001057600080fd5b5060e78061001f6000396000f300608060405260043610603e5763ffffffff7c0100000000000000000000000000000000000000000000000000000000600035041663f008325081146043575b600080fd5b348015604e57600080fd5b50607173ffffffffffffffffffffffffffffffffffffffff600435166024356083565b60408051918252519081900360200190f35b604080517f4552433832305f4143434550545f4d414749430000000000000000000000000081529051908190036013019020929150505600a165627a7a7230582069290119f1034097cbf8ab500fba9c371c64f55ff3498cccf93703b9c664d9770029",
  "source": "pragma solidity ^0.4.24;\n\nimport \"./ERC820ImplementerInterface.sol\";\n\n\ncontract ExampleImplementer is ERC820ImplementerInterface {\n    function canImplementInterfaceForAddress(address addr, bytes32 interfaceHash) view public returns(bytes32) {\n        return ERC820_ACCEPT_MAGIC;\n    }\n}\n",
  "sourcePath": "/home/ubuntu/dev/kpx/contracts/eip820/ExampleImplementer.sol",
  "compiler": {
    "name": "solc",
    "version": "0.4.24+commit.e67f0147.Emscripten.clang"
  },
  "schemaVersion": "2.0.1",
  "updatedAt": "2018-07-18T18:01:51.079Z"
}