{
  "contractName": "UnstructuredOwnedUpgradeabilityProxy",
  "abi": [
    {
      "constant": true,
      "inputs": [],
      "name": "implementation",
      "outputs": [
        {
          "name": "impl",
          "type": "address"
        }
      ],
      "payable": false,
      "stateMutability": "view",
      "type": "function"
    },
    {
      "inputs": [
        {
          "name": "registryAddr",
          "type": "address"
        }
      ],
      "payable": false,
      "stateMutability": "nonpayable",
      "type": "constructor"
    },
    {
      "payable": true,
      "stateMutability": "payable",
      "type": "fallback"
    },
    {
      "anonymous": false,
      "inputs": [
        {
          "indexed": false,
          "name": "previousOwner",
          "type": "address"
        },
        {
          "indexed": false,
          "name": "newOwner",
          "type": "address"
        }
      ],
      "name": "ProxyOwnershipTransferred",
      "type": "event"
    },
    {
      "anonymous": false,
      "inputs": [
        {
          "indexed": false,
          "name": "upgradeabilityOwner",
          "type": "address"
        }
      ],
      "name": "UpgradeabilityOwnerSet",
      "type": "event"
    },
    {
      "anonymous": false,
      "inputs": [
        {
          "indexed": false,
          "name": "registryAddress",
          "type": "address"
        }
      ],
      "name": "RegistryAddrSet",
      "type": "event"
    },
    {
      "anonymous": false,
      "inputs": [
        {
          "indexed": false,
          "name": "version",
          "type": "string"
        },
        {
          "indexed": true,
          "name": "implementation",
          "type": "address"
        }
      ],
      "name": "Upgraded",
      "type": "event"
    },
    {
      "anonymous": false,
      "inputs": [
        {
          "indexed": true,
          "name": "impPosition",
          "type": "address"
        }
      ],
      "name": "ImplementationPositionSet",
      "type": "event"
    },
    {
      "constant": true,
      "inputs": [],
      "name": "proxyOwner",
      "outputs": [
        {
          "name": "owner",
          "type": "address"
        }
      ],
      "payable": false,
      "stateMutability": "view",
      "type": "function"
    },
    {
      "constant": true,
      "inputs": [],
      "name": "registryAddr",
      "outputs": [
        {
          "name": "registry",
          "type": "address"
        }
      ],
      "payable": false,
      "stateMutability": "view",
      "type": "function"
    },
    {
      "constant": false,
      "inputs": [
        {
          "name": "registryAddress",
          "type": "address"
        }
      ],
      "name": "changeRegistry",
      "outputs": [],
      "payable": false,
      "stateMutability": "nonpayable",
      "type": "function"
    },
    {
      "constant": false,
      "inputs": [
        {
          "name": "newOwner",
          "type": "address"
        }
      ],
      "name": "transferProxyOwnership",
      "outputs": [],
      "payable": false,
      "stateMutability": "nonpayable",
      "type": "function"
    },
    {
      "constant": false,
      "inputs": [
        {
          "name": "contractName",
          "type": "string"
        },
        {
          "name": "versionName",
          "type": "string"
        },
        {
          "name": "implementation",
          "type": "address"
        }
      ],
      "name": "upgradeTo",
      "outputs": [],
      "payable": false,
      "stateMutability": "nonpayable",
      "type": "function"
    },
    {
      "constant": false,
      "inputs": [
        {
          "name": "contractName",
          "type": "string"
        },
        {
          "name": "versionName",
          "type": "string"
        },
        {
          "name": "implementation",
          "type": "address"
        },
        {
          "name": "data",
          "type": "bytes"
        }
      ],
      "name": "upgradeToAndCall",
      "outputs": [],
      "payable": true,
      "stateMutability": "payable",
      "type": "function"
    }
  ],
  "bytecode": "0x608060405234801561001057600080fd5b50604051602080610e528339810180604052810190808051906020019092919050505061004b33610069640100000000026401000000009004565b6100638161010d640100000000026401000000009004565b506101b1565b600060405180807f6f72672e6e6f72692e70726f78792e6f776e65720000000000000000000000008152506014019050604051809103902090508181557f3b0cafd62370550e29b73938980aa12140140dc15ea76833e07a2eda35695f8582604051808273ffffffffffffffffffffffffffffffffffffffff1673ffffffffffffffffffffffffffffffffffffffff16815260200191505060405180910390a15050565b600060405180807f6f72672e6e6f72692e72656769737472792e61646472657373000000000000008152506019019050604051809103902090508181557fb7f779905e041f03a0caaf89e90f030094468b03dc51502c1752994ce8fca80c82604051808273ffffffffffffffffffffffffffffffffffffffff1673ffffffffffffffffffffffffffffffffffffffff16815260200191505060405180910390a15050565b610c92806101c06000396000f300608060405260043610610083576000357c0100000000000000000000000000000000000000000000000000000000900463ffffffff168063025313a2146100f257806303189b2d1461014957806315554c55146102515780632bc38f781461029457806351da2eaa146103635780635c60da1b146103ba578063f1739cae14610411575b600061008d610454565b9050600073ffffffffffffffffffffffffffffffffffffffff168173ffffffffffffffffffffffffffffffffffffffff16141515156100cb57600080fd5b60405136600082376000803683855af43d806000843e81600081146100ee578184f35b8184fd5b3480156100fe57600080fd5b50610107610497565b604051808273ffffffffffffffffffffffffffffffffffffffff1673ffffffffffffffffffffffffffffffffffffffff16815260200191505060405180910390f35b61024f600480360381019080803590602001908201803590602001908080601f0160208091040260200160405190810160405280939291908181526020018383808284378201915050505050509192919290803590602001908201803590602001908080601f0160208091040260200160405190810160405280939291908181526020018383808284378201915050505050509192919290803573ffffffffffffffffffffffffffffffffffffffff169060200190929190803590602001908201803590602001908080601f01602080910402602001604051908101604052809392919081815260200183838082843782019150505050505091929192905050506104da565b005b34801561025d57600080fd5b50610292600480360381019080803573ffffffffffffffffffffffffffffffffffffffff1690602001909291905050506105bf565b005b3480156102a057600080fd5b50610361600480360381019080803590602001908201803590602001908080601f0160208091040260200160405190810160405280939291908181526020018383808284378201915050505050509192919290803590602001908201803590602001908080601f0160208091040260200160405190810160405280939291908181526020018383808284378201915050505050509192919290803573ffffffffffffffffffffffffffffffffffffffff16906020019092919050505061060c565b005b34801561036f57600080fd5b506103786108dc565b604051808273ffffffffffffffffffffffffffffffffffffffff1673ffffffffffffffffffffffffffffffffffffffff16815260200191505060405180910390f35b3480156103c657600080fd5b506103cf610454565b604051808273ffffffffffffffffffffffffffffffffffffffff1673ffffffffffffffffffffffffffffffffffffffff16815260200191505060405180910390f35b34801561041d57600080fd5b50610452600480360381019080803573ffffffffffffffffffffffffffffffffffffffff16906020019092919050505061091f565b005b60008060405180807f6f72672e6e6f72692e70726f78792e696d706c656d656e746174696f6e000000815250601d01905060405180910390209050805491505090565b60008060405180807f6f72672e6e6f72692e70726f78792e6f776e6572000000000000000000000000815250601401905060405180910390209050805491505090565b6104e2610497565b73ffffffffffffffffffffffffffffffffffffffff163373ffffffffffffffffffffffffffffffffffffffff1614151561051b57600080fd5b61052684848461060c565b3073ffffffffffffffffffffffffffffffffffffffff16348260405180828051906020019080838360005b8381101561056c578082015181840152602081019050610551565b50505050905090810190601f1680156105995780820380516001836020036101000a031916815260200191505b5091505060006040518083038185875af19250505015156105b957600080fd5b50505050565b6105c7610497565b73ffffffffffffffffffffffffffffffffffffffff163373ffffffffffffffffffffffffffffffffffffffff1614151561060057600080fd5b61060981610a46565b50565b6000610616610497565b73ffffffffffffffffffffffffffffffffffffffff163373ffffffffffffffffffffffffffffffffffffffff1614151561064f57600080fd5b61065882610aea565b6106606108dc565b90508073ffffffffffffffffffffffffffffffffffffffff166369d569fb853086866040518563ffffffff167c010000000000000000000000000000000000000000000000000000000002815260040180806020018573ffffffffffffffffffffffffffffffffffffffff1673ffffffffffffffffffffffffffffffffffffffff168152602001806020018473ffffffffffffffffffffffffffffffffffffffff1673ffffffffffffffffffffffffffffffffffffffff168152602001838103835287818151815260200191508051906020019080838360005b8381101561075557808201518184015260208101905061073a565b50505050905090810190601f1680156107825780820380516001836020036101000a031916815260200191505b50838103825285818151815260200191508051906020019080838360005b838110156107bb5780820151818401526020810190506107a0565b50505050905090810190601f1680156107e85780820380516001836020036101000a031916815260200191505b509650505050505050600060405180830381600087803b15801561080b57600080fd5b505af115801561081f573d6000803e3d6000fd5b505050508173ffffffffffffffffffffffffffffffffffffffff167f8e05e0e35ff592971ca8b477d4285a33a61ded208d644042667b78693a472f5e846040518080602001828103825283818151815260200191508051906020019080838360005b8381101561089c578082015181840152602081019050610881565b50505050905090810190601f1680156108c95780820380516001836020036101000a031916815260200191505b509250505060405180910390a250505050565b60008060405180807f6f72672e6e6f72692e72656769737472792e6164647265737300000000000000815250601901905060405180910390209050805491505090565b610927610497565b73ffffffffffffffffffffffffffffffffffffffff163373ffffffffffffffffffffffffffffffffffffffff1614151561096057600080fd5b600073ffffffffffffffffffffffffffffffffffffffff168173ffffffffffffffffffffffffffffffffffffffff161415151561099c57600080fd5b7f5a3e66efaa1e445ebd894728a69d6959842ea1e97bd79b892797106e270efcd96109c5610497565b82604051808373ffffffffffffffffffffffffffffffffffffffff1673ffffffffffffffffffffffffffffffffffffffff1681526020018273ffffffffffffffffffffffffffffffffffffffff1673ffffffffffffffffffffffffffffffffffffffff1681526020019250505060405180910390a1610a4381610b3e565b50565b600060405180807f6f72672e6e6f72692e72656769737472792e61646472657373000000000000008152506019019050604051809103902090508181557fb7f779905e041f03a0caaf89e90f030094468b03dc51502c1752994ce8fca80c82604051808273ffffffffffffffffffffffffffffffffffffffff1673ffffffffffffffffffffffffffffffffffffffff16815260200191505060405180910390a15050565b6000610af4610454565b90508173ffffffffffffffffffffffffffffffffffffffff168173ffffffffffffffffffffffffffffffffffffffff1614151515610b3157600080fd5b610b3a82610be2565b5050565b600060405180807f6f72672e6e6f72692e70726f78792e6f776e65720000000000000000000000008152506014019050604051809103902090508181557f3b0cafd62370550e29b73938980aa12140140dc15ea76833e07a2eda35695f8582604051808273ffffffffffffffffffffffffffffffffffffffff1673ffffffffffffffffffffffffffffffffffffffff16815260200191505060405180910390a15050565b600060405180807f6f72672e6e6f72692e70726f78792e696d706c656d656e746174696f6e000000815250601d019050604051809103902090508181558173ffffffffffffffffffffffffffffffffffffffff167fc28122b5e32e3ba08ee13769af3aa93e38733ec12a50045a6159afbe3b93229660405160405180910390a250505600a165627a7a723058206cbc5ccd3e914526b2f666f50d82eab21345218bde16491bb85df9a233a8aa4f0029",
  "source": "pragma solidity ^0.4.24;\n\nimport \"./UnstructuredUpgradeabilityProxy.sol\";\nimport \"../../registry/IVersionRegistry.sol\";\n\n/**\n * @title UnstructuredOwnedUpgradeabilityProxy\n * @dev This contract combines an upgradeability proxy with basic authorization control functionalities\n */\ncontract UnstructuredOwnedUpgradeabilityProxy is UnstructuredUpgradeabilityProxy {\n  /**\n  * @dev Event to show ownership has been transferred\n  * @param previousOwner representing the address of the previous owner\n  * @param newOwner representing the address of the new owner\n  */\n  event ProxyOwnershipTransferred(address previousOwner, address newOwner);\n  event UpgradeabilityOwnerSet(address upgradeabilityOwner);\n  event RegistryAddrSet(address registryAddress);\n\n  // Storage position of the owner of the contract\n  bytes32 private constant proxyOwnerPosition = keccak256(\"org.nori.proxy.owner\");\n\n  //Storage position of the registry to keep track of versions\n  //todo is it the case that adding this second reserved slot messes with storage elsewhere?\n  bytes32 private constant registryAddrPosition = keccak256(\"org.nori.registry.address\");\n  \n  /**\n  * @dev the constructor sets the original owner of the contract to the sender account.\n  */\n  constructor (address registryAddr) public {\n    setUpgradeabilityOwner(msg.sender);\n    setRegistryAddr(registryAddr);\n  }\n\n  /**\n  * @dev Throws if called by any account other than the owner.\n  */\n  modifier onlyProxyOwner() {\n    require(msg.sender == proxyOwner());\n    _;\n  }\n\n  /**\n   * @dev Tells the address of the owner\n   * @return the address of the owner\n   */\n  function proxyOwner() public view returns (address owner) {\n    bytes32 position = proxyOwnerPosition;\n    assembly { //solium-disable-line security/no-inline-assembly\n      owner := sload(position)\n    }\n  }\n\n  /**\n   * @dev Sets the address of the owner\n   */\n  function setUpgradeabilityOwner(address newProxyOwner) internal {\n    bytes32 position = proxyOwnerPosition;\n    assembly { //solium-disable-line security/no-inline-assembly\n      sstore(position, newProxyOwner)\n    }\n    emit UpgradeabilityOwnerSet(newProxyOwner);\n  }\n\n  /**\n   * @dev Tells the address of the registry\n   * @return the address of the registry\n   */\n  function registryAddr() public view returns (address registry) {\n    bytes32 position = registryAddrPosition;\n    assembly { //solium-disable-line security/no-inline-assembly\n      registry := sload(position)\n    }\n  }\n\n  /**\n   * @dev Sets the address of the regisrty\n   */\n  function setRegistryAddr(address registryAddress) internal {\n    bytes32 position = registryAddrPosition;\n    assembly { //solium-disable-line security/no-inline-assembly\n      sstore(position, registryAddress)\n    }\n    emit RegistryAddrSet(registryAddress);\n  }\n\n  function changeRegistry(address registryAddress) public onlyProxyOwner { \n    setRegistryAddr(registryAddress);\n  }\n\n  /**\n   * @dev Allows the current owner to transfer control of the contract to a newOwner.\n   * @param newOwner The address to transfer ownership to.\n   */\n  function transferProxyOwnership(address newOwner) public onlyProxyOwner {\n    require(newOwner != address(0));\n    emit ProxyOwnershipTransferred(proxyOwner(), newOwner);\n    setUpgradeabilityOwner(newOwner);\n  }\n\n  /**\n   * @dev Allows the proxy owner to upgrade the current version of the proxy.\n   * @param implementation representing the address of the new implementation to be set.\n   */\n  function upgradeTo(string contractName, string versionName, address implementation) public onlyProxyOwner {\n    _upgradeTo(implementation);\n    //todo register interface lookup using eip820 -- not including this now as implications are unknown\n    address registry = registryAddr();\n    IVersionRegistry(registry).setVersion(\n      contractName, \n      address(this), \n      versionName, \n      implementation\n    );\n    //todo require version name doesnt exits\n    emit Upgraded(versionName, implementation);\n  }\n\n  /**\n   * @dev Allows the proxy owner to upgrade the current version of the proxy and call the new implementation\n   * to initialize whatever is needed through a low level call.\n   * @param implementation representing the address of the new implementation to be set.\n   * @param data represents the msg.data to bet sent in the low level call. This parameter may include the function\n   * signature of the implementation to be called with the needed payload\n   */\n  function upgradeToAndCall(\n    string contractName, \n    string versionName, \n    address implementation, \n    bytes data\n  ) payable public onlyProxyOwner {\n    upgradeTo(contractName, versionName, implementation);\n    require(address(this).call.value(msg.value)(data)); //solium-disable-line security/no-call-value\n  }\n}",
  "sourcePath": "/home/ubuntu/dev/kpx/contracts/upgradeable/unstructured/UnstructuredOwnedUpgradeabilityProxy.sol",
  "compiler": {
    "name": "solc",
    "version": "0.4.24+commit.e67f0147.Emscripten.clang"
  },
  "schemaVersion": "2.0.1",
  "updatedAt": "2018-07-30T08:47:49.982Z"
}