{
  "contractName": "VersionRegistry",
  "abi": [
    {
      "constant": true,
      "inputs": [
        {
          "name": "",
          "type": "bytes32"
        },
        {
          "name": "",
          "type": "address"
        },
        {
          "name": "",
          "type": "uint256"
        }
      ],
      "name": "versions",
      "outputs": [
        {
          "name": "versionName",
          "type": "string"
        },
        {
          "name": "implementation",
          "type": "address"
        }
      ],
      "payable": false,
      "stateMutability": "view",
      "type": "function"
    },
    {
      "anonymous": false,
      "inputs": [
        {
          "indexed": false,
          "name": "contractName",
          "type": "string"
        },
        {
          "indexed": false,
          "name": "proxyAddress",
          "type": "address"
        },
        {
          "indexed": false,
          "name": "versionName",
          "type": "string"
        },
        {
          "indexed": false,
          "name": "newImplementation",
          "type": "address"
        }
      ],
      "name": "VersionSet",
      "type": "event"
    },
    {
      "constant": true,
      "inputs": [
        {
          "name": "_contractName",
          "type": "string"
        }
      ],
      "name": "getLatestProxyAddr",
      "outputs": [
        {
          "name": "",
          "type": "address"
        }
      ],
      "payable": false,
      "stateMutability": "view",
      "type": "function"
    },
    {
      "constant": true,
      "inputs": [
        {
          "name": "_contractName",
          "type": "string"
        },
        {
          "name": "_index",
          "type": "int256"
        }
      ],
      "name": "getVersionForContractName",
      "outputs": [
        {
          "name": "",
          "type": "string"
        },
        {
          "name": "",
          "type": "address"
        },
        {
          "name": "",
          "type": "address"
        }
      ],
      "payable": false,
      "stateMutability": "view",
      "type": "function"
    }
  ],
  "bytecode": "0x608060405234801561001057600080fd5b506107fb806100206000396000f300608060405260043610610057576000357c0100000000000000000000000000000000000000000000000000000000900463ffffffff16806360bd2ee41461005c5780636df4023d14610105578063bae1806814610257575b600080fd5b34801561006857600080fd5b506100c3600480360381019080803590602001908201803590602001908080601f016020809104026020016040519081016040528093929190818152602001838380828437820191505050505050919291929050505061035e565b604051808273ffffffffffffffffffffffffffffffffffffffff1673ffffffffffffffffffffffffffffffffffffffff16815260200191505060405180910390f35b34801561011157600080fd5b50610176600480360381019080803590602001908201803590602001908080601f016020809104026020016040519081016040528093929190818152602001838380828437820191505050505050919291929080359060200190929190505050610475565b60405180806020018473ffffffffffffffffffffffffffffffffffffffff1673ffffffffffffffffffffffffffffffffffffffff1681526020018373ffffffffffffffffffffffffffffffffffffffff1673ffffffffffffffffffffffffffffffffffffffff168152602001828103825285818151815260200191508051906020019080838360005b8381101561021a5780820151818401526020810190506101ff565b50505050905090810190601f1680156102475780820380516001836020036101000a031916815260200191505b5094505050505060405180910390f35b34801561026357600080fd5b506102b06004803603810190808035600019169060200190929190803573ffffffffffffffffffffffffffffffffffffffff169060200190929190803590602001909291905050506106ca565b60405180806020018373ffffffffffffffffffffffffffffffffffffffff1673ffffffffffffffffffffffffffffffffffffffff168152602001828103825284818151815260200191508051906020019080838360005b83811015610322578082015181840152602081019050610307565b50505050905090810190601f16801561034f5780820380516001836020036101000a031916815260200191505b50935050505060405180910390f35b600080826040516020018082805190602001908083835b60208310151561039a5780518252602082019150602081019050602083039250610375565b6001836020036101000a0380198251168184511680821785525050505050509050019150506040516020818303038152906040526040518082805190602001908083835b60208310151561040357805182526020820191506020810190506020830392506103de565b6001836020036101000a03801982511681845116808217855250505050505090500191505060405180910390209050600080826000191660001916815260200190815260200160002060009054906101000a900473ffffffffffffffffffffffffffffffffffffffff16915050919050565b6060600080600080600080600061048b8a61035e565b9350896040516020018082805190602001908083835b6020831015156104c657805182526020820191506020810190506020830392506104a1565b6001836020036101000a0380198251168184511680821785525050505050509050019150506040516020818303038152906040526040518082805190602001908083835b60208310151561052f578051825260208201915060208101905060208303925061050a565b6001836020036101000a0380198251168184511680821785525050505050509050019150506040518091039020925060016000846000191660001916815260200190815260200160002060008573ffffffffffffffffffffffffffffffffffffffff1673ffffffffffffffffffffffffffffffffffffffff168152602001908152602001600020915060008912156105d057600182805490500394506105d4565b8894505b81858154811015156105e257fe5b90600052602060002090600202019050806000018160010160009054906101000a900473ffffffffffffffffffffffffffffffffffffffff1685828054600181600116156101000203166002900480601f0160208091040260200160405190810160405280929190818152602001828054600181600116156101000203166002900480156106b15780601f10610686576101008083540402835291602001916106b1565b820191906000526020600020905b81548152906001019060200180831161069457829003601f168201915b5050505050925097509750975050505050509250925092565b6001602052826000526040600020602052816000526040600020818154811015156106f157fe5b90600052602060002090600202016000925092505050806000018054600181600116156101000203166002900480601f01602080910402602001604051908101604052809291908181526020018280546001816001161561010002031660029004801561079f5780601f106107745761010080835404028352916020019161079f565b820191906000526020600020905b81548152906001019060200180831161078257829003601f168201915b5050505050908060010160009054906101000a900473ffffffffffffffffffffffffffffffffffffffff169050825600a165627a7a72305820e5e2034bb197e6eb9d25d79e21016a015ec27fc92a11e2a2a2f85f0e87be9e500029",
  "source": "pragma solidity ^0.4.24;\n\n\n/// @title VersionRegistry\n/// @dev keeps track of the latest version of all contracts\ncontract VersionRegistry {\n\n  event VersionSet(string contractName, address proxyAddress, string versionName, address newImplementation);\n\n  mapping(bytes32 => address) internal proxyContracts;\n  mapping(bytes32 => mapping(address => Version[])) public versions;\n\n  struct Version {\n    string versionName;\n    address implementation;\n  }\n\n  /// @notice Gets the address of the latest proxt contract of a particular name\n  /// @param _contractName String name of a contract (ie Registry)\n  function getLatestProxyAddr(string _contractName) public view returns (address) {\n    bytes32 contractName = keccak256(abi.encodePacked(_contractName));\n    return proxyContracts[contractName];\n  }\n\n  //todo create a function for getting count of versiuons for a particular contract name\n  //todo create a function that gets a contract proxy for a particular version name\n\n  function _setVersion(\n    string _contractName, \n    address _proxyAddress, \n    string _versionName, \n    address _newImplementation\n  ) internal {\n    bytes32 contractName = keccak256(abi.encodePacked(_contractName));\n    Version[] storage history = versions[contractName][_proxyAddress];\n    history.push(Version(_versionName, _newImplementation));\n    proxyContracts[contractName] = _proxyAddress;\n    emit VersionSet(\n      _contractName, \n      _proxyAddress, \n      _versionName, \n      _newImplementation\n    );\n  }\n\n  /// @dev pass -1 to get the latest, or a particular index to get a certain one\n  function getVersionForContractName(string _contractName, int _index) public view returns (string, address, address) {\n    uint index;\n    address latestProxy = getLatestProxyAddr(_contractName);\n    bytes32 contractName = keccak256(abi.encodePacked(_contractName));\n    Version[] storage history = versions[contractName][latestProxy];\n    if(_index < 0) {\n      index = history.length-1;\n    }\n    else {\n      index = uint(_index);\n    }\n    Version storage latest = history[index];\n    return (latest.versionName, latest.implementation, latestProxy);\n  }\n\n}\n",
  "sourcePath": "/home/ubuntu/dev/kpx/contracts/registry/VersionRegistry.sol",
  "compiler": {
    "name": "solc",
    "version": "0.4.24+commit.e67f0147.Emscripten.clang"
  },
  "schemaVersion": "2.0.1",
  "updatedAt": "2018-07-30T08:47:46.551Z"
}